11822021G17572108FUNDACION PRIVADA VIPASSANA             T607966457TRUJILLO COLL MONTSE                    1820001622724 S18203112223580000005870000000150375551                                                                                          
21822021G1757210839132352Z         ABELLÓ JOAN                             08A035000000000034000 0000000F 0000                     2                                                                                                                      
21822021G17572108X1353919R         ADAMEC JULIA                            43A080000000000010000 0000000F 0000                     2                                                                                                                      
21822021G17572108B67253765         TOT BIO EL MASNOU SL                    08A035000000000101498 0000000J 0000                     2                                                                                                                      

