11822020G17572108FUNDACION PRIVADA VIPASSANA             T972269746JIMENEZ XIBERTA ROSAURA                 1821533550943  00000000000000000006130000000140691511                                                                                          
21822020G1757210805431812V         GRANDE GÓMEZ RAQUEL                     05A035000000000017500 0000000F 0000                     2                                                                                                                      
21822020G1757210838166244K         ALONSO COLOMER ROSA                     17A035000000000025000 0000000F 0000                     2                                                                                                                      
21822020G17572108Y2990371V         MARTINEAU JONATHAN                      28A035000000000025000 0000000F 0000                     2                                                                                                                      
21822020G1757210821462829B         ESTEVEZ GARCIA JESUS FRANCISCO          03A035000000000028000 0000000F 0000                     2                                                                                                                      
21822020G17572108                  LI BINYAO                               99A080000000000005000 0000000F 0000                     2                                                                                                                      
21822020G1757210847656443Y         VEGA NOELIA                             08A080000000000012000 0000000F 0000                     2                                                                                                                      
21822020G17572108X5729482K         FAHRENKRUG SABINE                       07A035000000000045000 0000000F 0000                     2                                                                                                                      
21822020G17572108Y1956639C         PINHEIRO LUCAS LÍVIA                    08A080000000000012000 0000000F 0000                     2                                                                                                                      
21822020G17572108Y6229886M         CERAMI FRANCESCA                        35A080000000000010000 0000000F 0000                     2                                                                                                                      
21822020G1757210877116159B         ANDREU ROVIRA EDUARD                    08A035000000000020000 0000000F 0000                     2                                                                                                                      
21822020G1757210877614206Q         MORENO CONTRERAS EVA                    08A035000000000024000 0000000F 0000                     2                                                                                                                      
21822020G17572108                  DOUBA NOUR                              99A080000000000010000 0000000F 0000                     2                                                                                                                      
21822020G17572108Y0522255P         LIU HUIMIN                              08A035000000000020000 0000000F 0000                     2                                                                                                                      
21822020G1757210848017826J         ECHENIQUE ANCEL LUCÍA INÉS              43A035000000000050000 0000000F 0000                     2                                                                                                                      
21822020G17572108                  BERTUCCI MARIA TERESA                   99A080000000000005000 0000000F 0000                     2                                                                                                                      
21822020G1757210844024378D         VALLÉS STAHNKE JOEL                     08A080000000000010000 0000000F 0000                     2                                                                                                                      
21822020G1757210839698375F         CASAS NÚRIA                             08A035000000000027000 0000000F 0000                     2                                                                                                                      
21822020G17572108                  MAHMUTOVIC HARIS                        99A080000000000010000 0000000F 0000                     2                                                                                                                      
21822020G17572108                  FREY MICHAELA                           99A035000000000025000 0000000F 0000                     2                                                                                                                      
21822020G1757210846785448K         CUNILLERA ENRIC                         08A080000000000010000 0000000F 0000                     2                                                                                                                      
21822020G1757210840998555C         PEREZ CUESTA MARTA                      08A080000000000010000 0000000F 0000                     2                                                                                                                      
21822020G17572108                  BIJL DE VROE SANDER                     99A035000000000040000 0000000F 0000                     2                                                                                                                      
21822020G17572108X7366121A         MELO CRUZ MARÍA ANDREA                  48A080000000000006000 0000000F 0000                     2                                                                                                                      
21822020G17572108                  VON KORFF YORCK                         99A035000000000360000 0000000F 0000                     2                                                                                                                      
21822020G1757210844313530M         TORRES NICASIO                          08A035000000000020000 0000000F 0000                     2                                                                                                                      
21822020G17572108                  TONNE CHRISTIN                          99A080000000000015000 0000000F 0000                     2                                                                                                                      
21822020G1757210834760768V         HERNÁNDEZ EMILIO                        08A035000000000020000 0000000F 0000                     2                                                                                                                      
21822020G17572108Y2093204B         PINOT CECILE                            08A035000000000040000 0000000F 0000                     2                                                                                                                      
21822020G17572108Y4596256L         WILLIAMS MATTHEW                        08A080000000000010000 0000000F 0000                     2                                                                                                                      
21822020G1757210852598065D         ANDREU RAMÍREZ NÉSTOR                   08A035000000000030000 0000000F 0000                     2                                                                                                                      
21822020G1757210818434070F         FLETA CANDIAL LUISA                     08A080000000000013000 0000000F 0000                     2                                                                                                                      
21822020G1757210825198605N         GIMENEZ CORTES FÁTIMA                   50A035000000000035000 0000000F 0000                     2                                                                                                                      
21822020G1757210846700352W         GARCIA CLARA                            08A035000000000042000 0000000F 0000                     2                                                                                                                      
21822020G17572108                  THOMAS DAPHNE DANIELLE MADUSHANI        99A035000000000020000 0000000F 0000                     2                                                                                                                      
21822020G1757210839653749R         SERRA CABADO JOAN                       08A080000000000010000 0000000F 0000                     2                                                                                                                      
21822020G1757210847832892E         ARROYO RUIZ LUIS                        08A080000000000002000 0000000F 0000                     2                                                                                                                      
21822020G1757210846438004S         GNECCHI NICOLO                          08A080000000000010000 0000000F 0000                     2                                                                                                                      
21822020G17572108                  ALVAREZ HENSEN AMAYA                    99A035000000000050000 0000000F 0000                     2                                                                                                                      
21822020G1757210880086112C         GARCÍA CUENDA PABLO                     06A035000000000016000 0000000F 0000                     2                                                                                                                      
21822020G1757210800690856M         GARCIA-VALDECASAS SONSOLES              28A035000000000024000 0000000F 0000                     2                                                                                                                      
21822020G17572108X4134870E         HAUKAAS VIGDIS                          08A080000000000015000 0000000F 0000                     2                                                                                                                      
21822020G1757210853082874R         DE MANUEL RUBÉN                         99A080000000000010000 0000000F 0000                     2                                                                                                                      
21822020G17572108                  LOH ALASTAIR                            99A035000000000035000 0000000F 0000                     2                                                                                                                      
21822020G1757210839696263B         RECASENS ANDREU FRANCESC                43A080000000000010000 0000000F 0000                     2                                                                                                                      
21822020G1757210828546055L         MORGADO RODRIGUEZ JAVIER                08A080000000000003000 0000000F 0000                     2                                                                                                                      
21822020G1757210870887582H         RODRIGUEZ FONDON FRANCISCO JAVIER       37A080000000000012000 0000000F 0000                     2                                                                                                                      
21822020G1757210846340612M         MOLLFULLEDA SAN JULIAN MARTA            08A080000000000004000 0000000F 0000                     2                                                                                                                      
21822020G1757210877287384R         FERET RAVENTÓS MONTSERRAT               08A080000000000003000 0000000F 0000                     2                                                                                                                      
21822020G17572108                  FRANCESCA NIKI                          99A080000000000004000 0000000F 0000                     2                                                                                                                      
21822020G17572108Y2807865Q         MOUNTAIN CHARLES PHILIP                 08A080000000000001500 0000000F 0000                     2                                                                                                                      
21822020G17572108Y1087549P         MILLAN BARRAGÁN LAURA JULIANA           08A080000000000001500 0000000F 0000                     2                                                                                                                      
21822020G17572108Y3199355T         CARAMEAUX JADE                          08A080000000000002000 0000000F 0000                     2                                                                                                                      
21822020G17572108                  SANTOS BARBOSA ANA PRISCILLA            99A080000000000003000 0000000F 0000                     2                                                                                                                      
21822020G1757210877306703T         LLORET CALVO MONTSERRAT                 08A080000000000002000 0000000F 0000                     2                                                                                                                      
21822020G17572108                  LEYGLENE ELIANE                         99A080000000000005000 0000000F 0000                     2                                                                                                                      
21822020G17572108Y7047155S         KOSCHEEV ANDREY                         08A080000000000005000 0000000F 0000                     2                                                                                                                      
21822020G1757210843424757K         FERNÁNDEZ ZARAGOZA JUAN CARLOS          43A080000000000003000 0000000F 0000                     2                                                                                                                      
21822020G1757210840312780J         CÁRCELES ALEMÁN DAVID                   43A035000000000034000 0000000F 0000                     2                                                                                                                      
21822020G1757210848790898D         THION SORIANO INÈS                      08A080000000000002000 0000000F 0000                     2                                                                                                                      
21822020G17572108X7323187X         GMELCH NADJA                            08A080000000000003000 0000000F 0000                     2                                                                                                                      
21822020G1757210877610951G         FERNÁNDEZ EGIDOS JOSEFINA               08A080000000000002000 0000000F 0000                     2                                                                                                                      
21822020G17572108X6081062T         LAETANO SILMARA CRISTINA                08A080000000000002000 0000000F 0000                     2                                                                                                                      
21822020G17572108Y4441312A         BREITENFELD JESSICA                     08A080000000000006000 0000000F 0000                     2                                                                                                                      
21822020G17572108                  CHILDS JACQUELINE                       99A080000000000005000 0000000F 0000                     2                                                                                                                      
21822020G1757210839165659V         OSUNA ANNAI                             08A080000000000001500 0000000F 0000                     2                                                                                                                      
21822020G1757210853395395K         JUANGRAN NEUS                           25A080000000000002000 0000000F 0000                     2                                                                                                                      
21822020G17572108                  UBACHS MEEF                             99A080000000000010000 0000000F 0000                     2                                                                                                                      
21822020G1757210877122346B         ROVIRA JUSTRIBO MARTA                   08A035000000000026000 0000000F 0000                     2                                                                                                                      
21822020G17572108                  BARBARESI BARBARA                       99A080000000000013000 0000000F 0000                     2                                                                                                                      
21822020G17572108                  BOUCHET MARIE                           99A080000000000015000 0000000F 0000                     2                                                                                                                      
21822020G1757210806317514N         BENTANCOUR SORAYA                       08A080000000000010000 0000000F 0000                     2                                                                                                                      
21822020G1757210836976087E         FARRE TORRENTS M ASSUMPCIO              08A035000000000052000 0000000F 0000                     2                                                                                                                      
21822020G1757210843630672V         FONT VILA JUDIT                         17A035000000000035000 0000000F 0000                     2                                                                                                                      
21822020G17572108                  LASTOVINA SVETLANA                      99A080000000000004000 0000000F 0000                     2                                                                                                                      
21822020G17572108                  UDOVIDCHENKO DARIA                      99A080000000000010000 0000000F 0000                     2                                                                                                                      
21822020G17572108                  VALCÁRCEL ARÉVALO PATRICIA              99A035000000000020000 0000000F 0000                     2                                                                                                                      
21822020G1757210878951195S         ANDIA CELAYA IONE                       48A080000000000010000 0000000F 0000                     2                                                                                                                      
21822020G17572108                  VLIEG MATHILDE                          99A035000000000035000 0000000F 0000                     2                                                                                                                      
21822020G1757210847172627H         MANZANAL SANJUAN ORIOL                  08A080000000000010000 0000000F 0000                     1                                                                                                                      
21822020G1757210818159968L         ARBUES GRACIA LEONOR                    22A040000000000040000 0000000F 0000                     1                                                                                                                      
21822020G1757210853026904J         GAMARRA RUIZ SAMUEL                     99A035000000000030000 0000000F 0000                     2                                                                                                                      
21822020G17572108Y4919666A         FURSEY NATALIA                          08A080000000000010000 0000000F 0000                     2                                                                                                                      
21822020G1757210877738369W         CAMP SOLDEVILA FINA                     08A035000000000030000 0000000F 0000                     2                                                                                                                      
21822020G1757210874669765N         PALLARÈS CALVI ABDUL                    08A035000000000030000 0000000F 0000                     2                                                                                                                      
21822020G1757210844016576G         TOBELLA JOSÉ                            08A040000000000035000 0000000F 0000                     1                                                                                                                      
21822020G17572108Y6891871G         CASTIGLIA RICARDO ISIDRO                11A080000000000005000 0000000F 0000                     2                                                                                                                      
21822020G17572108Y6891852P         BIELSA BERNARDITA                       11A080000000000005000 0000000F 0000                     2                                                                                                                      
21822020G17572108                  NOSOVA TATIANA                          99A035000000000017500 0000000F 0000                     2                                                                                                                      
21822020G1757210835097783J         CAPARRÓS JOAN                           17A080000000000010000 0000000F 0000                     2                                                                                                                      
21822020G1757210843526710S         MONTESINOS PACITTO DAVID                99A035000000000020000 0000000F 0000                     2                                                                                                                      
21822020G1757210847817974P         MONTESINOS PACITTO JONATAN              08A080000000000015000 0000000F 0000                     2                                                                                                                      
21822020G1757210878101828S         COLELL TESTAGORDA GEMMA                 25A080000000000015000 0000000F 0000                     2                                                                                                                      
21822020G1757210838547292M         CARAVANTES HERRANZ PILAR                08A080000000000005000 0000000F 0000                     2                                                                                                                      
21822020G1757210835596710R         DE RIVAS ENRIQUE                        08A080000000000005000 0000000F 0000                     2                                                                                                                      
21822020G1757210839432061X         MARTINEZ MOLINS MARIA                   43A035000000000020000 0000000F 0000                     2                                                                                                                      
21822020G1757210846463335T         CANYELLES ALBA                          08A080000000000010000 0000000F 0000                     2                                                                                                                      
21822020G1757210846543860W         AGUILAR BARREIRA JOSE                   08A035000000000083000 0000000F 0000                     2                                                                                                                      
21822020G17572108X2985938D         SAUER MICHAEL                           08A035000000000035000 0000000F 0000                     2                                                                                                                      
21822020G1757210854046043E         SÁNCHEZ ÁLVAREZ JAVIER                  38A035000000000025000 0000000F 0000                     2                                                                                                                      
21822020G17572108X9889054C         DELLE CAVE BIAGIO                       08A035000000000030000 0000000F 0000                     2                                                                                                                      
21822020G17572108                  PARUBETS LIDIIA                         99A080000000000015000 0000000F 0000                     2                                                                                                                      
21822020G17572108Y5669082X         PEDROZO VIEIRA HUGO JUNIOR              99A080000000000005000 0000000F 0000                     2                                                                                                                      
21822020G1757210826856743B         LITVINOVA MAKAROVA LYUDMILA             08A080000000000015000 0000000F 0000                     2                                                                                                                      
21822020G1757210847683006G         OLOMI MARC                              25A035000000000050000 0000000F 0000                     2                                                                                                                      
21822020G17572108                  DUTOYA GRAU MARIE-PASCALE               99A080000000000010000 0000000F 0000                     2                                                                                                                      
21822020G17572108Y5976258K         TEMEYAJARASWONG DARUNEE                 08A035000000000042000 0000000F 0000                     2                                                                                                                      
21822020G17572108X6097795N         REPETTO LISA                            08A035000000000020000 0000000F 0000                     2                                                                                                                      
21822020G17572108                  MUNNE JENNI                             99A080000000000010000 0000000F 0000                     2                                                                                                                      
21822020G17572108Y0249759Q         POZUELO LOPEZ ROBERTO                   08A035000000000025000 0000000F 0000                     2                                                                                                                      
21822020G1757210874228572M         MARCOS ALBA NOEMI                       03A035000000000016000 0000000F 0000                     2                                                                                                                      
21822020G1757210809806492M         MATA CANTON JORGE                       24A035000000000030000 0000000F 0000                     2                                                                                                                      
21822020G17572108                  ORAZEM BOJANA                           99A080000000000000450 0000000F 0000                     2                                                                                                                      
21822020G1757210845173153A         CAPELLÀ CARBÓ BRU                       17A035000000000022200 0000000F 0000                     2                                                                                                                      
21822020G17572108X5412539H         IVANCHEV MITKO                          28A080000000000003000 0000000F 0000                     2                                                                                                                      
21822020G1757210800407048V         LÓPEZ LÁZARO JOSÉ ANDRÉS                28A035000000000018000 0000000F 0000                     2                                                                                                                      
21822020G1757210837711791W         FAURA AUGÉ MONTSE                       08A035000000000020000 0000000F 0000                     2                                                                                                                      
21822020G1757210843006670M         SERVERA SALAS PAU                       08A035000000000035000 0000000F 0000                     2                                                                                                                      
21822020G1757210835121655B         GORDILLO BUENO TONI                     08A080000000000012000 0000000F 0000                     2                                                                                                                      
21822020G17572108                  PALLARES POLS JUAN                      99A035000000000050000 0000000F 0000                     2                                                                                                                      
21822020G1757210845422755D         MARTÍNEZ ARRANZ ANA ISABEL              15A035000000000050000 0000000F 0000                     2                                                                                                                      
21822020G1757210839335430W         PRAT XAVIER                             08A035000000000025000 0000000F 0000                     2                                                                                                                      
21822020G1757210822722650F         URIARTE BAUTISTA MARIA JOSE             08A040000000000024000 0000000F 0000                     1                                                                                                                      
21822020G1757210852782483J         ORTIZ LOPEZ MARIA                       03A080000000000010000 0000000F 0000                     2                                                                                                                      
21822020G1757210839717338H         MONTSERRAT ESPIÑA JOAN                  43A080000000000015000 0000000F 0000                     2                                                                                                                      
21822020G1757210801803359K         PALMERO GONZÁLEZ JULIAN                 28A080000000000004000 0000000F 0000                     2                                                                                                                      
21822020G1757210803896269T         LÓPEZ BENITO PENÉLOPE                   03A080000000000012000 0000000F 0000                     2                                                                                                                      
21822020G1757210844865390A         CHÁVEZ PELAYO LUCILA                    46A080000000000006000 0000000F 0000                     2                                                                                                                      
21822020G17572108Y7031874Y         GREEN HEIDI                             22A035000000000024000 0000000F 0000                     2                                                                                                                      
21822020G1757210846596406Q         PINO PAULINO SERGI                      99A035000000000050000 0000000F 0000                     2                                                                                                                      
21822020G1757210850186241B         LOZANO MARTA                            28A080000000000010000 0000000F 0000                     2                                                                                                                      
21822020G1757210844876011K         RODENAS LAPRADA DAVINIA                 46A080000000000015000 0000000F 0000                     2                                                                                                                      
21822020G1757210809179063Q         MORENO VERONICA                         10A080000000000002000 0000000F 0000                     2                                                                                                                      
21822020G1757210853313447E         GARMENDIA PUNTES MARINA                 08A080000000000005500 0000000F 0000                     2                                                                                                                      
21822020G1757210801089958B         BRAÑA REY EMILIA                        99A035000000000156000 0000000F 0000                     2                                                                                                                      
21822020G1757210846305338J         MEDIR MAGDA                             43A035000000000352661 0000000F 0000                     2                                                                                                                      
21822020G1757210854613163P         PEREZ OCHOA SYLVIA                      08A080000000000007000 0000000F 0000                     2                                                                                                                      
21822020G1757210847769515X         VALLDEPÉREZ AYXENDRI JOAN               43A080000000000015000 0000000F 0000                     2                                                                                                                      
21822020G1757210801911767F         GONZALEZ DE PABLO CARMEN                28A035000000000025000 0000000F 0000                     2                                                                                                                      
21822020G17572108X1631614V         DENIS FRANCINE                          08A035000000000020000 0000000F 0000                     2                                                                                                                      
21822020G17572108                  NACARINO TEALDO CARMEN ANGELLINA        99A080000000000008000 0000000F 0000                     2                                                                                                                      
21822020G1757210847226633C         BARTOLOMÉ CARRERO LORENA                18A080000000000010000 0000000F 0000                     2                                                                                                                      
21822020G17572108Y5000062Z         SHOKOVA MARIIA                          38A035000000000030000 0000000F 0000                     2                                                                                                                      
21822020G1757210847946737V         FIZ VIOLA JERÓNIMO MANUEL               08A080000000000010000 0000000F 0000                     2                                                                                                                      
21822020G17572108Y2424523S         KALLAUR ELENA                           08A035000000000017000 0000000F 0000                     2                                                                                                                      
21822020G17572108                  MARTI MICHELLE MARIA                    99A080000000000015000 0000000F 0000                     2                                                                                                                      
21822020G1757210852403591T         GONZALEZ FERRANDO JOSE                  08A080000000000015000 0000000F 0000                     1                                                                                                                      
21822020G1757210837671790K         LOPEZ GABRIEL                           08A035000000000020000 0000000F 0000                     2                                                                                                                      
21822020G17572108                  LECOMTE NICOLAS                         99A080000000000003000 0000000F 0000                     2                                                                                                                      
21822020G17572108Y4145726J         JOHNSON ALASTAIR                        08A035000000000040000 0000000F 0000                     2                                                                                                                      
21822020G17572108X2965834F         LOPERA CORREDOR DANIEL                  08A080000000000015000 0000000F 0000                     2                                                                                                                      
21822020G1757210846049456Y         BOU ALGAR ROBERT                        08A035000000000017000 0000000F 0000                     2                                                                                                                      
21822020G1757210847408952H         MORA TORRES MARIA                       07A035000000000025000 0000000F 0000                     2                                                                                                                      
21822020G1757210847655690N         ESPADALÓPEZ MÓNICA                      08A080000000000005000 0000000F 0000                     2                                                                                                                      
21822020G1757210843552814Z         CASTELLÓ HENARES CINTIA                 08A080000000000010000 0000000F 0000                     2                                                                                                                      
21822020G1757210853123082M         FERRER GIMENO JOSEP ORIOL               08A080000000000015000 0000000F 0000                     1                                                                                                                      
21822020G17572108                  BAPST VALENTINE                         99A035000000000055000 0000000F 0000                     2                                                                                                                      
21822020G1757210847954817R         GONZÁLEZ GUTIÉRREZ GABRIELA             08A035000000000016000 0000000F 0000                     2                                                                                                                      
21822020G1757210838104931A         DÍEZ GARCÍA FRANCISCO JAVIER            08A035000000000030000 0000000F 0000                     2                                                                                                                      
21822020G1757210837736293D         TEIXIDO ANA                             99A035000000000065000 0000000F 0000                     2                                                                                                                      
21822020G1757210847279096C         SANCHEZ MARTINEZ CARLA                  08A080000000000006000 0000000F 0000                     2                                                                                                                      
21822020G1757210846699238S         OLIVERAS VAN LOON DAPHNE                08A035000000000020000 0000000F 0000                     2                                                                                                                      
21822020G17572108X2329816P         PEUZIAT VINCENT                         08A035000000000025000 0000000F 0000                     2                                                                                                                      
21822020G17572108                  GANCHEVA IRINA                          99A035000000000020000 0000000F 0000                     2                                                                                                                      
21822020G1757210846563608Q         SOLE NICOLAS JORDI                      08A080000000000015000 0000000F 0000                     2                                                                                                                      
21822020G1757210816565979E         LAPEÑA HERRERO JOSUÉ                    26A035000000000038200 0000000F 0000                     2                                                                                                                      
21822020G1757210847794499Q         VILAR BOFILL HELENA                     08A080000000000010000 0000000F 0000                     2                                                                                                                      
21822020G1757210878987158Y         FERNÁNDEZ ESTEBAN ÁNGEL LUIS            28A080000000000015000 0000000F 0000                     2                                                                                                                      
21822020G17572108                  IRBE LIGA                               99A080000000000005000 0000000F 0000                     2                                                                                                                      
21822020G17572108X6732769W         ARANCIO MAURO                           08A035000000000021000 0000000F 0000                     2                                                                                                                      
21822020G1757210877909949W         VIDAL BELVIS GRISELDA                   17A035000000000030000 0000000F 0000                     2                                                                                                                      
21822020G1757210843404762J         ROMERO PINIELLA MANUELA                 17A040000000000067500 0000000F 0000                     1                                                                                                                      
21822020G1757210840348346K         BLAZQUEZ MONTENEGRO ALICIA              08A080000000000010000 0000000F 0000                     2                                                                                                                      
21822020G1757210831697511S         VAZQUEZ ALONSO HUGO BRAULIO             99A035000000000025502 0000000F 0000                     2                                                                                                                      
21822020G1757210824328944G         MONTES DE OCA LÓPEZ PEDRO               07A035000000000017500 0000000F 0000                     2                                                                                                                      
21822020G1757210848433574J         GONZALVEZ SUSANA                        15A035000000000020000 0000000F 0000                     2                                                                                                                      
21822020G17572108                  DOS SANTOS SERENA MICHEL                99A080000000000003000 0000000F 0000                     2                                                                                                                      
21822020G1757210840287575Q         HOSTA TERESA                            17A080000000000008500 0000000F 0000                     2                                                                                                                      
21822020G17572108                  BROWN JESSICA                           99A080000000000015000 0000000F 0000                     2                                                                                                                      
21822020G17572108                  SOARES JAVIER                           99A035000000000022000 0000000F 0000                     2                                                                                                                      
21822020G17572108                  GROLLEMUND EMMANUEL                     99A035000000000019000 0000000F 0000                     2                                                                                                                      
21822020G1757210827378230L         LLORCA GUARDIOLA VICTORIA               29A035000000000020000 0000000F 0000                     2                                                                                                                      
21822020G1757210847732485X         CAMERON VICTORIA                        08A080000000000006000 0000000F 0000                     2                                                                                                                      
21822020G1757210841447331C         RAMON PLANELLS PEPA                     07A035000000000020000 0000000F 0000                     2                                                                                                                      
21822020G1757210873195420J         SOTO BERNAD PILAR                       08A040000000000030000 0000000F 0000                     1                                                                                                                      
21822020G1757210846742167A         ARNEDO GUILLEM                          08A080000000000015000 0000000F 0000                     2                                                                                                                      
21822020G1757210846667756C         BLANCH PAMIES JOSE                      08A035000000000025000 0000000F 0000                     2                                                                                                                      
21822020G1757210842197605B         CARO CONCEPCIÓN MARÍA                   08A035000000000029000 0000000F 0000                     2                                                                                                                      
21822020G1757210844987399C         TORRECILLAS IZQUIERDO DANIEL            08A080000000000005000 0000000F 0000                     2                                                                                                                      
21822020G17572108X9458268R         ZAGDANSKA GABRIELA                      08A080000000000005000 0000000F 0000                     2                                                                                                                      
21822020G1757210844006627Z         PUIGMAL CRESPO ELENA                    08A080000000000015000 0000000F 0000                     2                                                                                                                      
21822020G17572108                  CHATY PASCAL                            99A035000000000055000 0000000F 0000                     2                                                                                                                      
21822020G1757210837329824L         VALLS LILLO LAURA                       08A080000000000005000 0000000F 0000                     2                                                                                                                      
21822020G17572108                  JANKOVIC DUBREIL SLADJANA               99A080000000000009000 0000000F 0000                     2                                                                                                                      
21822020G1757210845646646H         PUJOL APARICIO MARTI                    99A035000000000030000 0000000F 0000                     2                                                                                                                      
21822020G1757210843428877R         SANTAMARIA LACASTA BEGOÑA               08A080000000000014000 0000000F 0000                     2                                                                                                                      
21822020G17572108X4696145M         CAMERON VEAS KARLA ALEJANDRA            08A080000000000004000 0000000F 0000                     2                                                                                                                      
21822020G1757210842744521X         GUERRA ARABOLAZA OLGA                   07A035000000000020000 0000000F 0000                     2                                                                                                                      
21822020G1757210878862347Q         RELLOSO DÍAZ DE PÑARTE JOSE IGNACIO     35A035000000000026000 0000000F 0000                     2                                                                                                                      
21822020G1757210839932534A         BALDIRA ARGUILAGUET EDUARD              43A080000000000010000 0000000F 0000                     2                                                                                                                      
21822020G17572108                  GO ALLISON GO SHI YU                    99A080000000000003000 0000000F 0000                     2                                                                                                                      
21822020G1757210847417571N         VENQUE GÓMEZ SARA                       43A035000000000025000 0000000F 0000                     2                                                                                                                      
21822020G1757210839922511P         RODRÍGUEZ RECASENS JOAN                 43A035000000000025000 0000000F 0000                     2                                                                                                                      
21822020G17572108                  CORONA FRANÇOIS                         99A080000000000015000 0000000F 0000                     2                                                                                                                      
21822020G17572108X2185476Q         BUCHHOLZ STEPHANIE                      08A035000000000040000 0000000F 0000                     2                                                                                                                      
21822020G1757210851107524Y         MARTÍNEZ DENIA SUSANA                   28A035000000000025000 0000000F 0000                     2                                                                                                                      
21822020G1757210844564620G         CAMPOS SERGIO                           20A035000000000025000 0000000F 0000                     2                                                                                                                      
21822020G1757210847107023X         PRIETO CARLOS                           08A080000000000002000 0000000F 0000                     2                                                                                                                      
21822020G1757210841581405G         TENEDOR ALEXANDRE                       17A035000000000020000 0000000F 0000                     2                                                                                                                      
21822020G17572108                  NIEMCZYK AGNIESZKA                      99A080000000000015000 0000000F 0000                     2                                                                                                                      
21822020G17572108                  NOWAK ALEX                              99A035000000000025000 0000000F 0000                     2                                                                                                                      
21822020G17572108                  VIZCARDO ANGIE                          99A080000000000015000 0000000F 0000                     2                                                                                                                      
21822020G17572108                  HAGNÄS LAURA                            99A080000000000015000 0000000F 0000                     2                                                                                                                      
21822020G17572108                  EGLITIS ARMANDS                         99A080000000000010000 0000000F 0000                     2                                                                                                                      
21822020G17572108                  BARSOUKOV DMITRI                        99A035000000000020000 0000000F 0000                     2                                                                                                                      
21822020G1757210802901493C         MARTÍNEZ MARIA ÁNGELES                  17A080000000000007000 0000000F 0000                     2                                                                                                                      
21822020G1757210803446974X         SERRANO SÁNCHEZ JUAN CARLOS             40A080000000000006500 0000000F 0000                     2                                                                                                                      
21822020G1757210838077565F         GIRACO GEORGE                           08A035000000000020000 0000000F 0000                     2                                                                                                                      
21822020G1757210809772472W         CARCEDO MARIA LUISA                     24A035000000000025000 0000000F 0000                     2                                                                                                                      
21822020G1757210847971738V         BLANCO ANGEL                            08A035000000000050000 0000000F 0000                     2                                                                                                                      
21822020G1757210847923881T         QUINTANA MATHÉ POL                      08A080000000000015000 0000000F 0000                     2                                                                                                                      
21822020G17572108X6221615T         PIETROBON MASSIMO                       08A035000000000022200 0000000F 0000                     2                                                                                                                      
21822020G1757210878862347Q         RELLOSO JOSE IGNACIO                    35A080000000000010000 0000000F 0000                     2                                                                                                                      
21822020G1757210811837792Z         ROCHA RUIZ CARLOS                       28A035000000000030000 0000000F 0000                     2                                                                                                                      
21822020G17572108                  ARNDT FLORIAN MARTIN                    99A035000000000020000 0000000F 0000                     2                                                                                                                      
21822020G1757210874883083M         DIAZ CARMONA MARINA                     29A035000000000022000 0000000F 0000                     2                                                                                                                      
21822020G1757210876437115L         RAMÍREZ LOBATO LORENA                   29A080000000000009000 0000000F 0000                     2                                                                                                                      
21822020G1757210846953279K         STIVELBERG PEREYRA LEANDRO              07A035000000000020000 0000000F 0000                     2                                                                                                                      
21822020G1757210846637455X         MASSANA SÁNCHEZ JOAQUIM                 08A080000000000014000 0000000F 0000                     2                                                                                                                      
21822020G17572108Y8037480Y         HAN JENNIFER                            99A035000000000040000 0000000F 0000                     2                                                                                                                      
21822020G1757210847960500A         MONTEQUIN DEHESA MARTIN                 08A035000000000030000 0000000F 0000                     2                                                                                                                      
21822020G1757210820464273T         SEDER COLOMINA ELENA                    99A080000000000015000 0000000F 0000                     2                                                                                                                      
21822020G17572108                  CARMONA ESPINOSA JOSE LUIS              99A080000000000005000 0000000F 0000                     2                                                                                                                      
21822020G1757210819506279W         PASTOR CONCHA                           46A035000000000030000 0000000F 0000                     2                                                                                                                      
21822020G17572108                  CASTILLO PORTELA DORA MARIA             99A080000000000012000 0000000F 0000                     2                                                                                                                      
21822020G17572108                  MOURLAÀS MICHÈLE                        99A080000000000012000 0000000F 0000                     2                                                                                                                      
21822020G17572108Y5245221Q         MICALLEF KRISTY                         08A080000000000005000 0000000F 0000                     2                                                                                                                      
21822020G17572108                  APOSTOLOVA SILVIYA                      99A080000000000015000 0000000F 0000                     2                                                                                                                      
21822020G17572108Y6819168G         CROOK BELLA                             08A080000000000005000 0000000F 0000                     2                                                                                                                      
21822020G17572108                  KOCHNEVA EKATERINA                      99A035000000000020000 0000000F 0000                     2                                                                                                                      
21822020G17572108                  VERETILNYK PETRO                        99A035000000000025000 0000000F 0000                     2                                                                                                                      
21822020G1757210835112724G         AMELA BONILLA INMACULADA                07A080000000000015000 0000000F 0000                     2                                                                                                                      
21822020G17572108                  DEL MISSIER ANNA                        99A035000000000020000 0000000F 0000                     2                                                                                                                      
21822020G1757210835102650G         MONTESINOS SOSPEDRA SUSANA              08A080000000000008000 0000000F 0000                     2                                                                                                                      
21822020G17572108                  STOPPINI MARCO                          99A080000000000010000 0000000F 0000                     2                                                                                                                      
21822020G17572108                  WOLKEN LÉTICIA                          99A080000000000005000 0000000F 0000                     2                                                                                                                      
21822020G17572108                  BONIN DIEGO                             99A035000000000025000 0000000F 0000                     2                                                                                                                      
21822020G17572108                  PICHAT EMMANUELLE                       99A035000000000025000 0000000F 0000                     2                                                                                                                      
21822020G17572108X3081915F         MACI GIOVANNI                           07A080000000000006000 0000000F 0000                     2                                                                                                                      
21822020G17572108                  ALBERTI MARIA                           99A035000000000040000 0000000F 0000                     2                                                                                                                      
21822020G1757210805462582J         RAMIREZ LAGO ALEJANDRA                  08A080000000000010000 0000000F 0000                     2                                                                                                                      
21822020G1757210851120605T         SOTO ROBLES ALICIA                      28A080000000000005000 0000000F 0000                     2                                                                                                                      
21822020G1757210846407201D         CASES ALBERT                            99A080000000000011000 0000000F 0000                     2                                                                                                                      
21822020G17572108                  VAN LITH CORNELIS                       99A080000000000010000 0000000F 0000                     2                                                                                                                      
21822020G17572108                  FRENKEL TOMER                           99A080000000000005000 0000000F 0000                     2                                                                                                                      
21822020G1757210878623688M         CAÑADA IBONE                            38A035000000000020100 0000000F 0000                     2                                                                                                                      
21822020G17572108                  BÜHLER MICHAEL                          99A035000000000120000 0000000F 0000                     2                                                                                                                      
21822020G17572108                  FOITIK ADRIAN CONSTANTIN                99A080000000000010000 0000000F 0000                     2                                                                                                                      
21822020G1757210816074596B         SIERRA URIARTE JON IMANOL               48A080000000000004000 0000000F 0000                     2                                                                                                                      
21822020G17572108                  GARBE MORITZ                            99A080000000000005000 0000000F 0000                     2                                                                                                                      
21822020G17572108                  WAHALA ANNA                             99A035000000000270000 0000000F 0000                     2                                                                                                                      
21822020G1757210806989560K         CARBALLO PAÑERO PILAR                   28A035000000000025000 0000000F 0000                     2                                                                                                                      
21822020G1757210845666432R         GARCIA GAGO ESTIBALIZ                   48A035000000000050000 0000000F 0000                     2                                                                                                                      
21822020G17572108                  LAMMERS VAN TOORENBURG VANITY           99A080000000000015000 0000000F 0000                     2                                                                                                                      
21822020G1757210852764834M         NAVARRO MARTINEZ ANA MARÍA              03A080000000000004000 0000000F 0000                     2                                                                                                                      
21822020G1757210830591383A         SAGARDUY BUTRON EDUARDO                 31A035000000000090000 0000000F 0000                     2                                                                                                                      
21822020G17572108                  LEVY MURRAY JACOB                       99A080000000000008838 0000000F 0000                     2                                                                                                                      
21822020G17572108                  PILOTH JENNIFER                         99A035000000000020000 0000000F 0000                     2                                                                                                                      
21822020G1757210845717451Y         YESTE NAVARRO JUAN RAMON                18A035000000000090000 0000000F 0000                     2                                                                                                                      
21822020G17572108X7942478A         GUSALOVA KARINA                         08A035000000000018000 0000000F 0000                     2                                                                                                                      
21822020G1757210802606356L         VALLEJO JOSÉ LUIS                       28A080000000000010000 0000000F 0000                     2                                                                                                                      
21822020G1757210834730336Z         MOJICA ZAPATER ISRAEL                   08A080000000000002000 0000000F 0000                     2                                                                                                                      
21822020G1757210822405133M         GONZALVEZ RIQUELME RAMON                30A035000000000035000 0000000F 0000                     2                                                                                                                      
21822020G1757210804843919G         SANCHEZ FABIO                           07A035000000000033000 0000000F 0000                     2                                                                                                                      
21822020G17572108X1732978C         GIACCHETTA RAFFAELE                     05A080000000000010000 0000000F 0000                     2                                                                                                                      
21822020G17572108                  BERKOVITZ SHIRAN                        99A035000000000018000 0000000F 0000                     2                                                                                                                      
21822020G1757210848740958W         QUÍLEZ FRANCO PEDRO ESTEBAN             30A080000000000005000 0000000F 0000                     2                                                                                                                      
21822020G1757210846341199V         SANCHEZ CALVO SERGIO                    08A035000000000040000 0000000F 0000                     2                                                                                                                      
21822020G17572108                  SCHERER-MOHR BJÖRN NIKOLAI              99A035000000000016000 0000000F 0000                     2                                                                                                                      
21822020G1757210825965768X         LAFUENTE SABARIEGO JOSÉ LUIS            18A080000000000010000 0000000F 0000                     2                                                                                                                      
21822020G17572108Y0122776Q         TRUINI WILLIAM                          08A035000000000036598 0000000F 0000                     2                                                                                                                      
21822020G1757210847641161L         GUTIÉRREZ SÁNCHEZ SONIA                 08A080000000000004000 0000000F 0000                     2                                                                                                                      
21822020G1757210840533425L         CANO HERMOSILLA ORIOL                   17A080000000000015000 0000000F 0000                     2                                                                                                                      
21822020G1757210835058728N         GOLMAYO BOADA MAITE                     99A035000000000018000 0000000F 0000                     2                                                                                                                      
21822020G1757210847692418D         PAMPALONA NEUS                          08A080000000000010000 0000000F 0000                     2                                                                                                                      
21822020G1757210846213398G         MESTRES VILAHUR LUIS                    08A035000000000019000 0000000F 0000                     2                                                                                                                      
21822020G1757210846332210K         ELIAS XAVIER                            17A080000000000003000 0000000F 0000                     2                                                                                                                      
21822020G17572108Y3526727J         GIUSTI RODOLFO                          17A080000000000005000 0000000F 0000                     2                                                                                                                      
21822020G1757210846562321V         BARBENA MARTÍ ANNA                      08A080000000000007000 0000000F 0000                     2                                                                                                                      
21822020G1757210846943041H         MORALES MORENO MARIO                    08A035000000000030000 0000000F 0000                     2                                                                                                                      
21822020G1757210838082907J         THEM GUSTAVO                            08A040000000000099000 0000000F 0000                     1                                                                                                                      
21822020G17572108Y3452487V         IVANYTSKA ANNA                          08A035000000000020000 0000000F 0000                     2                                                                                                                      
21822020G1757210847835865M         CABEZAS NOGUERÓN OSCAR                  08A080000000000012000 0000000F 0000                     2                                                                                                                      
21822020G17572108                  FIORIDO XAVIER                          99A035000000000023000 0000000F 0000                     2                                                                                                                      
21822020G1757210847719478K         RIPOLL GALLA                            08A035000000000100000 0000000F 0000                     2                                                                                                                      
21822020G1757210838067431Q         GARCÍA ROBLES FRANCISCO JESÚS           08A035000000000051000 0000000F 0000                     2                                                                                                                      
21822020G17572108X2845133X         BORDESSOULLES BRUNO                     99A035000000000065000 0000000F 0000                     2                                                                                                                      
21822020G1757210847801347X         LÓPEZ VARGAS CARMEN                     08A080000000000005000 0000000F 0000                     2                                                                                                                      
21822020G1757210840314630T         DUBÉ FUMADÓ DAVID                       08A035000000000017000 0000000F 0000                     2                                                                                                                      
21822020G17572108                  VILARINHO RUI PEDRO                     99A080000000000014000 0000000F 0000                     2                                                                                                                      
21822020G17572108Y1150881K         SIDORENKO SONYA                         08A080000000000005000 0000000F 0000                     2                                                                                                                      
21822020G17572108Y1350067G         IVASHCHENKO EVGENIYA                    08A080000000000003000 0000000F 0000                     2                                                                                                                      
21822020G1757210843533044R         HIDALGO HERNANDO JAVIER                 08A080000000000001000 0000000F 0000                     2                                                                                                                      
21822020G1757210847941746V         PIELLA GOMEZ IRENE                      08A080000000000006500 0000000F 0000                     2                                                                                                                      
21822020G1757210835019619A         MARTINEZ SILVESTRE NEUS                 08A035000000000020000 0000000F 0000                     2                                                                                                                      
21822020G1757210846140842J         CORONAS MARTÍN DAVID                    08A080000000000002000 0000000F 0000                     2                                                                                                                      
21822020G1757210877919431P         ALONSO JOAN                             17A080000000000002000 0000000F 0000                     2                                                                                                                      
21822020G17572108Y4931897K         BEERENFENGER LISANNE                    08A080000000000002500 0000000F 0000                     2                                                                                                                      
21822020G1757210847906229N         CASAÍN PAHISSA MARC                     08A080000000000007300 0000000F 0000                     2                                                                                                                      
21822020G17572108Y0876196W         CORNILLET LYDIA                         08A080000000000002000 0000000F 0000                     2                                                                                                                      
21822020G1757210844020543S         AGUARELES ISAAC                         08A080000000000003000 0000000F 0000                     2                                                                                                                      
21822020G17572108X6165683G         MOROZOV KONSTANTIN                      08A080000000000005000 0000000F 0000                     2                                                                                                                      
21822020G17572108X2653442R         FUKUDA SAWAKO                           08A080000000000002000 0000000F 0000                     2                                                                                                                      
21822020G1757210841495298D         SINTES GUARDIA MIGUEL ANGEL             07A080000000000010000 0000000F 0000                     2                                                                                                                      
21822020G17572108X3191048M         GRADILLA CASTELLANOS PABLO MISAEL       08A080000000000005000 0000000F 0000                     2                                                                                                                      
21822020G17572108                  LARUE BERTRAND                          99A080000000000015000 0000000F 0000                     2                                                                                                                      
21822020G17572108X3042982J         VORONTSOVA ALISA                        20A080000000000005000 0000000F 0000                     2                                                                                                                      
21822020G1757210833444683S         RODRIGUEZ MARIA                         31A080000000000004000 0000000F 0000                     2                                                                                                                      
21822020G1757210833883636J         SABATER ANNA                            08A035000000000070000 0000000F 0000                     2                                                                                                                      
21822020G1757210840856286Y         GUIM VALL RAMON                         08A080000000000007000 0000000F 0000                     2                                                                                                                      
21822020G1757210852558780P         CHUECO RUIZ ISABEL                      17A080000000000003000 0000000F 0000                     2                                                                                                                      
21822020G17572108X3951755X         BYSTROVA EKATERINA                      28A080000000000012000 0000000F 0000                     2                                                                                                                      
21822020G17572108                  CARDONA MATHIEU                         99A035000000000025000 0000000F 0000                     2                                                                                                                      
21822020G1757210877318841V         BARROSO INDIANO MÓNICA                  08A080000000000010000 0000000F 0000                     2                                                                                                                      
21822020G1757210833874903C         TORRAS COMPANY FRANCINA                 08A080000000000011000 0000000F 0000                     2                                                                                                                      
21822020G1757210802901491H         MARTÍNEZ ESTRELLA                       07A080000000000004000 0000000F 0000                     2                                                                                                                      
21822020G1757210807238052K         RAMÍREZ CUESTA MARÍA JESÚS              22A080000000000006000 0000000F 0000                     2                                                                                                                      
21822020G1757210842209449X         CONTRERAS GUZMÁN GRACIELA               08A080000000000002500 0000000F 0000                     2                                                                                                                      
21822020G17572108Y7323720M         PEREIRA MONTERO CLEMENT ANDREINA        43A080000000000002000 0000000F 0000                     2                                                                                                                      
21822020G17572108X6048632T         GARCIA GERMÁN JORGE                     43A080000000000003500 0000000F 0000                     2                                                                                                                      
21822020G1757210876257158Z         RUIZ SOLA RAÚL                          08A080000000000005000 0000000F 0000                     2                                                                                                                      
21822020G1757210802201693H         ZABALETA ROMO VICENTE                   28A035000000000040000 0000000F 0000                     2                                                                                                                      
21822020G1757210817153296B         LOPEZ GASCON JOSÉ                       17A080000000000002000 0000000F 0000                     2                                                                                                                      
21822020G1757210802076932D         COLLADO FLORENCIO                       18A035000000000090000 0000000F 0000                     2                                                                                                                      
21822020G17572108Y4694087P         ZHOMIR IAROSLAVA                        08A035000000000017000 0000000F 0000                     2                                                                                                                      
21822020G1757210826060156Y         HERMOSO VALBUENA YADDAY                 08A080000000000002000 0000000F 0000                     2                                                                                                                      
21822020G17572108                  DE CARVALHO PAIXAO JOSE                 99A035000000000050000 0000000F 0000                     2                                                                                                                      
21822020G17572108X1590006Q         TRIBONDEAU CATHERINE                    07A035000000000016000 0000000F 0000                     2                                                                                                                      
21822020G1757210848659120K         HERNANDEZ SANCHEZ LUCIA                 08A080000000000010000 0000000F 0000                     2                                                                                                                      
21822020G1757210851289904L         LOPEZ FERNANDEZ JORGELINA BEATRIZ       08A080000000000010000 0000000F 0000                     2                                                                                                                      
21822020G1757210841654334T         BOUHASFOUR BUSRIF SALIHA                17A080000000000007000 0000000F 0000                     2                                                                                                                      
21822020G17572108                  CHEN YANCHN                             99A080000000000009700 0000000F 0000                     2                                                                                                                      
21822020G17572108                  ANAÏS RAPHEL                            99A080000000000010000 0000000F 0000                     2                                                                                                                      
21822020G17572108                  SCHAACK LAURENCE                        99A035000000000045000 0000000F 0000                     2                                                                                                                      
21822020G1757210810041410R         ILLAN MARGARITA ISABEL                  43A035000000000060000 0000000F 0000                     2                                                                                                                      
21822020G1757210815251137K         PELAEZ FELICIANO                        20A035000000000030000 0000000F 0000                     2                                                                                                                      
21822020G17572108Y1420603E         NUNES MARCIA SILVIA                     08A040000000000035000 0000000F 0000                     1                                                                                                                      
21822020G17572108                  CHANMANTANA YUVALAK                     99A080000000000005000 0000000F 0000                     2                                                                                                                      
21822020G1757210829155902K         DEL RÍO JESÚS                           31A035000000000030000 0000000F 0000                     2                                                                                                                      
21822020G1757210836931118H         ALEJANDRE JESÚS                         08A035000000000040000 0000000F 0000                     2                                                                                                                      
21822020G1757210830503483D         HENS PÉREZ LUIS                         35A035000000000060000 0000000F 0000                     2                                                                                                                      
21822020G1757210839427313T         GODALL ZIMMERMANN MARCO                 08A080000000000015000 0000000F 0000                     2                                                                                                                      
21822020G1757210838827346B         MARTÍN PRATS MÓNICA                     08A080000000000015000 0000000F 0000                     2                                                                                                                      
21822020G17572108                  GROLLEAU FRANÇOIS                       99A035000000000050000 0000000F 0000                     2                                                                                                                      
21822020G1757210872143671P         DEL CERRO GUTIÉRREZ CLARA               39A080000000000010000 0000000F 0000                     2                                                                                                                      
21822020G1757210871182746T         LÓPEZ MUÑOZ MARIO SALVADOR              28A035000000000025000 0000000F 0000                     2                                                                                                                      
21822020G1757210875266986S         GARCÍA NOFUENTES AURORA                 04A080000000000015000 0000000F 0000                     2                                                                                                                      
21822020G1757210848534822S         APARICIO DAVID                          38A080000000000010000 0000000F 0000                     1                                                                                                                      
21822020G17572108                  ARENDT VERENA                           99A035000000000035000 0000000F 0000                     2                                                                                                                      
21822020G17572108                  LOMAN STÉPHANIE                         99A035000000000025000 0000000F 0000                     2                                                                                                                      
21822020G1757210852209458X         ILLANES ALFONSO                         08A080000000000012000 0000000F 0000                     2                                                                                                                      
21822020G1757210830615834M         IRUETA AINHOA                           08A035000000000030000 0000000F 0000                     2                                                                                                                      
21822020G1757210871804951D         PRIETO JAVIER                           08A080000000000005000 0000000F 0000                     2                                                                                                                      
21822020G1757210846770617W         CRUZ CRISTINA                           08A080000000000008000 0000000F 0000                     2                                                                                                                      
21822020G17572108Y4904074M         VALERGA AGUSTINA                        99A080000000000010800 0000000F 0000                     2                                                                                                                      
21822020G1757210846121888B         GOSALBEZ RAFEL PATRICIA                 08A035000000000033000 0000000F 0000                     2                                                                                                                      
21822020G17572108X8607455G         VAN ESSEN EZRA                          08A035000000000025000 0000000F 0000                     2                                                                                                                      
21822020G1757210821753424R         FLORES BAÑUELOS SILVIA SUSANA           08A080000000000010000 0000000F 0000                     2                                                                                                                      
21822020G1757210848509143G         SERRANO PABLO                           08A035000000000025000 0000000F 0000                     2                                                                                                                      
21822020G1757210835595861A         BORRAS MAS PAU                          46A035000000000020000 0000000F 0000                     2                                                                                                                      
21822020G1757210847895628Z         DÍAZ FERNÁNDEZ ANTONIO                  08A080000000000010000 0000000F 0000                     2                                                                                                                      
21822020G1757210835055391X         CULEBRAS JUNQUÉ JOSEP LLUÍS             08A035000000000025000 0000000F 0000                     2                                                                                                                      
21822020G1757210830260641R         GARCIA GIJON FERNANDO                   99A080000000000015000 0000000F 0000                     2                                                                                                                      
21822020G17572108X1397940T         STURM LUCAS                             17A035000000000025000 0000000F 0000                     2                                                                                                                      
21822020G1757210846152297Z         LISBONA VICTORIA                        08A080000000000009000 0000000F 0000                     2                                                                                                                      
21822020G1757210846723659X         FERNÁNDEZ MARTA                         08A080000000000015000 0000000F 0000                     2                                                                                                                      
21822020G1757210847925664N         MUNTAN GOMÀ JOSEP                       08A035000000000044400 0000000F 0000                     2                                                                                                                      
21822020G17572108Y6399331D         DOS RAMOS NOTO LORENZ KATIUSKA          99A080000000000004000 0000000F 0000                     2                                                                                                                      
21822020G1757210821770536R         FIGUERAS CERVELLÓ MARÍA                 08A080000000000015000 0000000F 0000                     2                                                                                                                      
21822020G1757210847696024G         MARTÍNEZ HERGUIDO JÚLIA                 25A035000000000030000 0000000F 0000                     2                                                                                                                      
21822020G1757210847238355N         BORTOLOTTI SANDRA                       08A080000000000010000 0000000F 0000                     2                                                                                                                      
21822020G17572108Y6990074C         UNTEREINER ERIN                         08A035000000000018000 0000000F 0000                     2                                                                                                                      
21822020G1757210826617357D         NIEMBRO EDUARDO                         08A035000000000040000 0000000F 0000                     2                                                                                                                      
21822020G1757210844420202A         CARNERO VICENTE RAQUEL                  08A035000000000040000 0000000F 0000                     2                                                                                                                      
21822020G17572108Y1321166Z         DE WILDE REMI PAUL                      35A035000000000025000 0000000F 0000                     2                                                                                                                      
21822020G1757210831038224T         ROSALES PANIAGUA ELIANA                 08A035000000000030000 0000000F 0000                     2                                                                                                                      
21822020G17572108Y5794964J         ALVAREZ MARCELO                         08A080000000000004000 0000000F 0000                     1                                                                                                                      
21822020G1757210847713748H         BAYAS FERNANDEZ GUILLERMO               08A035000000000030000 0000000F 0000                     2                                                                                                                      
21822020G1757210853492941R         GRANADOS ALCALA PATRICIA                28A035000000000030000 0000000F 0000                     2                                                                                                                      
21822020G1757210848443928V         VILA CABALLER PAU                       29A035000000000020000 0000000F 0000                     2                                                                                                                      
21822020G1757210844001221J         AGUILAR SORIA DAVID                     08A080000000000005000 0000000F 0000                     2                                                                                                                      
21822020G1757210844286116F         MEZCUA LOPEZ ANTONIO                    18A035000000000040000 0000000F 0000                     2                                                                                                                      
21822020G1757210834822088L         GUILLAMÓN MARTÍN ALFREDO                46A035000000000022000 0000000F 0000                     2                                                                                                                      
21822020G1757210877611564L         CAIMEL IVAN                             08A080000000000005000 0000000F 0000                     2                                                                                                                      
21822020G17572108                  BLANCO GUTIÉRREZ LAURA                  99A035000000000020000 0000000F 0000                     2                                                                                                                      
21822020G1757210853190350K         NUÑEZ LEBOREIRO RUBEN                   36A080000000000015000 0000000F 0000                     2                                                                                                                      
21822020G17572108Y7749801B         MARCHESI MARIA LARA                     08A035000000000030000 0000000F 0000                     2                                                                                                                      
21822020G1757210874390255K         MOLLA MUÑOZ CARLOTA                     03A080000000000010000 0000000F 0000                     2                                                                                                                      
