11822022G17572108FUNDACION PRIVADA VIPASSANA             T655068483HERVAS CERCOS JULIO                     1820000000001  18200016227240000006620000000149082921                                                                                          
21822022G17572108X4539550V         ABRANTES PEREIRA CLAUDIA LILIANA        28A035000000000025000 0000000F 0000                     2                                                                                                                      
21822022G17572108Y5104466K         ACEMOGLU MUTLU CAGSUN                   08A080000000000010000 0000000F 0000                     2                                                                                                                      
21822022G17572108Y3670483L         ADDISON ADRIAN                          08A035000000000020000 0000000F 0000                     2                                                                                                                      
21822022G17572108Y7464388M         AHONEN MARIANNA                         08A035000000000020000 0000000F 0000                     2                                                                                                                      
21822022G1757210849747267S         AHUMADA ROCIO                           08A080000000000010000 0000000F 0000                     2                                                                                                                      
21822022G17572108Y7683198Q         AITKEN MARK                             08A080000000000004000 0000000F 0000                     2                                                                                                                      
21822022G1757210843427875B         ALCUBIERRE SAEZ JOSE LUIS               08A080000000000010000 0000000F 0000                     2                                                                                                                      
21822022G1757210817740588K         ALEGRE ALFONSO                          50A035000000000040000 0000000F 0000                     2                                                                                                                      
21822022G1757210840345854J         ALESANCO JOU DANIEL                     17A080000000000015000 0000000F 0000                     2                                                                                                                      
21822022G1757210840863771Q         ALEU SOLE JOSE MARIA                    08A035000000000060000 0000000F 0000                     2                                                                                                                      
21822022G17572108Y2938112Z         ALMEIDA COELHO PACHECO DE SOUZA BERNARDO08A035000000000020000 0000000F 0000                     2                                                                                                                      
21822022G1757210848053213A         ALMODOVAR GARCIA REBECA                 08A080000000000004000 0000000F 0000                     2                                                                                                                      
21822022G17572108Y5734884D         ALMUDARRA OMAR                          17A035000000000200000 0000000F 0000                     2                                                                                                                      
21822022G1757210872593460D         ALONSO ANE                              48A035000000000020000 0000000F 0000                     2                                                                                                                      
21822022G1757210838166244K         ALONSO COLOMER ROSA                     17A035000000000070000 0000000F 0000                     2                                                                                                                      
21822022G1757210871664912V         ALONSO MORO ANDRES                      33A080000000000003500 0000000F 0000                     2                                                                                                                      
21822022G17572108Y9374625T         ALPUCHE GONZALEZ TANIA ELIZABETH        08A080000000000010000 0000000F 0000                     2                                                                                                                      
21822022G1757210855360964X         ALVAREZ MOLINA AYELEN                   08A080000000000005000 0000000F 0000                     2                                                                                                                      
21822022G1757210835112724G         AMELA BONILLA INMACULADA                07A035000000000021500 0000000F 0000                     2                                                                                                                      
21822022G1757210839933396Z         AMELLER BELLERA NADIA                   08A080000000000011100 0000000F 0000                     2                                                                                                                      
21822022G1757210841575315D         ANDREU ROGER                            17A080000000000010000 0000000F 0000                     2                                                                                                                      
21822022G17572108X8162922S         ANDRUKHNENKO NATALIYA                   28A035000000000020000 0000000F 0000                     2                                                                                                                      
21822022G1757210838540141F         ANGLES RAMON                            08A080000000000015000 0000000F 0000                     2                                                                                                                      
21822022G1757210852629970J         ANGUITA RAMOS JUAN RAFAEL               38A080000000000006400 0000000F 0000                     2                                                                                                                      
21822022G17572108Y1358971F         ANOSOVA EKATERINA                       08A035000000000020000 0000000F 0000                     2                                                                                                                      
21822022G17572108Y6532273B         ANTUNEZ REYES KARIN JANITZA             08A080000000000005000 0000000F 0000                     2                                                                                                                      
21822022G17572108Y6991258P         ARABIA FRANCIS VICTORIA                 08A080000000000015000 0000000F 0000                     2                                                                                                                      
21822022G1757210854486390B         ARAGONA DERKA SANTIAGO                  25A080000000000012000 0000000F 0000                     2                                                                                                                      
21822022G17572108X6732769W         ARANCIO MAURO                           08A080000000000006000 0000000F 0000                     2                                                                                                                      
21822022G1757210818159968L         ARBUES LEONOR                           22A080000000000010000 0000000F 0000                     2                                                                                                                      
21822022G1757210838868656J         ARGEMI EMILIO                           07A080000000000010000 0000000F 0000                     2                                                                                                                      
21822022G1757210847688073B         ARGUERO ELOI                            43A035000000000030000 0000000F 0000                     2                                                                                                                      
21822022G1757210839133697W         ARMENGOL SAMBOLA MARTA                  08A080000000000010000 0000000F 0000                     2                                                                                                                      
21822022G1757210872481323C         ARTOLA URTZI                            20A035000000000050000 0000000F 0000                     2                                                                                                                      
21822022G1757210844870461Z         ASSANDAS KHEMLANI ROMINA                46A080000000000015000 0000000F 0000                     2                                                                                                                      
21822022G1757210860038143R         AVELLANEDA JORGE ALBERTO                08A035000000000020000 0000000F 0000                     2                                                                                                                      
21822022G1757210833436373P         AYESA DAVID                             31A035000000000050000 0000000F 0000                     2                                                                                                                      
21822022G17572108Y5184009F         AZUAJE BALZA LUZ MARIA                  12A080000000000010000 0000000F 0000                     2                                                                                                                      
21822022G1757210806683567C         BADDOUR EILYN                           08A080000000000003000 0000000F 0000                     2                                                                                                                      
21822022G1757210847967826S         BADIA CARLOTA                           08A080000000000010000 0000000F 0000                     2                                                                                                                      
21822022G1757210817194847R         BALAGA ARRANDA CARMEN                   03A035000000000030000 0000000F 0000                     2                                                                                                                      
21822022G1757210839932534A         BALDIRA ARGILAGUET EDUARD               43A080000000000012000 0000000F 0000                     2                                                                                                                      
21822022G1757210853292225Y         BALSEBRE FONTOVA AURORA                 17A080000000000002400 0000000F 0000                     2                                                                                                                      
21822022G17572108Y8488726S         BANS ROSALEEN MARY AMRIT                46A035000000000020000 0000000F 0000                     2                                                                                                                      
21822022G1757210846562321V         BARBENA MARTI ANNA                      08A035000000000025000 0000000F 0000                     2                                                                                                                      
21822022G1757210841493667B         BARCELO PUIG ANNA                       17A035000000000036000 0000000F 0000                     2                                                                                                                      
21822022G1757210841523649R         BARCELO SANSO TOMEU                     07A035000000000040000 0000000F 0000                     2                                                                                                                      
21822022G1757210847715668Y         BARI CORBERO JORDI                      08A035000000000018500 0000000F 0000                     2                                                                                                                      
21822022G1757210847917207L         BARLEYCORN GUILLEM                      07A035000000000025000 0000000F 0000                     2                                                                                                                      
21822022G17572108X0452860J         BARNICKEL JURGEN                        03A080000000000012000 0000000F 0000                     2                                                                                                                      
21822022G1757210853604171A         BARRACHINA SANTANA ERNEST               46A080000000000010000 0000000F 0000                     2                                                                                                                      
21822022G17572108X8984555L         BARRATT CHRISTOPHER                     08A035000000000020000 0000000F 0000                     2                                                                                                                      
21822022G1757210835991890H         BARREIRO PEDRIDO ALFONSO                17A035000000000035000 0000000F 0000                     2                                                                                                                      
21822022G1757210843533992Y         BARRENO VANESSA                         08A035000000000017000 0000000F 0000                     2                                                                                                                      
21822022G17572108X4836944K         BARRET CATHERINE                        08A080000000000006000 0000000F 0000                     2                                                                                                                      
21822022G1757210872471507W         BARRIGA IPARRAGIRRE PATXI               08A080000000000010000 0000000F 0000                     2                                                                                                                      
21822022G1757210843448624Z         BARTOMEU PRADOS CARLOS                  08A035000000000030000 0000000F 0000                     2                                                                                                                      
21822022G17572108Y9622316G         BECERRA MARTIN GABRIEL                  08A035000000000035000 0000000F 0000                     2                                                                                                                      
21822022G17572108Y5023536M         BECHER CHRISTINA                        07A080000000000007000 0000000F 0000                     2                                                                                                                      
21822022G1757210853216679S         BELLES HUMBLE SOFIA                     40A080000000000010000 0000000F 0000                     2                                                                                                                      
21822022G1757210834103701Z         BELOKI JON ANDER                        20A035000000000030000 0000000F 0000                     2                                                                                                                      
21822022G1757210872840205X         BELTRAN DE GUEVARA JOSU                 20A035000000000025000 0000000F 0000                     2                                                                                                                      
21822022G1757210848286940G         BENEYTO JUAN CARLOS                     46A035000000000030000 0000000F 0000                     2                                                                                                                      
21822022G1757210836519888M         BENITEZ MARIA                           08A080000000000015000 0000000F 0000                     2                                                                                                                      
21822022G17572108Y0113801B         BERKOVA KSENIA                          08A080000000000005000 0000000F 0000                     2                                                                                                                      
21822022G17572108Y1704802X         BERLINGUER MARCO                        08A035000000000018000 0000000F 0000                     2                                                                                                                      
21822022G1757210805197022B         BLANQUER GARCIA JUANA                   28A035000000000035000 0000000F 0000                     2                                                                                                                      
21822022G17572108X3939986V         BONNOTTE DENIS                          08A035000000000270001 0000000F 0000                     2                                                                                                                      
21822022G17572108X2845133X         BORDESSOULLES BRUNO                     17A035000000000150000 0000000F 0000                     2                                                                                                                      
21822022G1757210835595861A         BORRAS PAU                              46A035000000000045000 0000000F 0000                     2                                                                                                                      
21822022G1757210839883011E         BORRAS VIDAL RAMON                      08A035000000000020000 0000000F 0000                     2                                                                                                                      
21822022G1757210846348624J         BOSCH CASTELLET ORIOL                   08A080000000000003000 0000000F 0000                     2                                                                                                                      
21822022G1757210801089958B         BRANA EMI                               05A035000000000030000 0000000F 0000                     2                                                                                                                      
21822022G1757210834738256E         BRAVO ALBERTO                           07A035000000000025000 0000000F 0000                     2                                                                                                                      
21822022G17572108X6818059P         BRETOVA KATERINA                        08A035000000000018000 0000000F 0000                     2                                                                                                                      
21822022G1757210878986088V         BROWN ALAN                              29A080000000000000600 0000000F 0000                     2                                                                                                                      
21822022G1757210817203293Y         BRU GUZMAN ENRIQUE JAVIER               46A080000000000010000 0000000F 0000                     2                                                                                                                      
21822022G1757210877961963J         BRUNSO HERNANDEZ IRIS                   08A080000000000010000 0000000F 0000                     2                                                                                                                      
21822022G17572108Y6086898P         BUDDEN NICOLE                           08A080000000000005000 0000000F 0000                     2                                                                                                                      
21822022G1757210846742882M         BUIL OSCAR                              08A035000000000030000 0000000F 0000                     2                                                                                                                      
21822022G17572108Y4969167P         BULL CHRISTIAN                          08A035000000000040000 0000000F 0000                     2                                                                                                                      
21822022G1757210831922611Z         BUSHEVA RODRIGUEZ SVETLANA              08A035000000000020000 0000000F 0000                     2                                                                                                                      
21822022G1757210841683475T         BUSSI FIORAMONTI CAROLINA               17A080000000000005000 0000000F 0000                     2                                                                                                                      
21822022G1757210846801735R         CABALLERO ANSKAR                        08A080000000000010000 0000000F 0000                     2                                                                                                                      
21822022G1757210846728468N         CABALLERO UFARTE PABLO                  08A080000000000000251 0000000F 0000                     2                                                                                                                      
21822022G1757210847835865M         CABEZAS OSCAR                           08A080000000000002200 0000000F 0000                     2                                                                                                                      
21822022G1757210846710280V         CABIRO RAIMON                           08A080000000000005000 0000000F 0000                     2                                                                                                                      
21822022G1757210877096059J         CABRE PLAYA XAVIER                      08A080000000000015000 0000000F 0000                     2                                                                                                                      
21822022G1757210842216848A         CABRERA PEREZ ATTASSA                   08A035000000000050000 0000000F 0000                     2                                                                                                                      
21822022G1757210877611564L         CAIMEL IVAN                             17A035000000000024000 0000000F 0000                     2                                                                                                                      
21822022G1757210847887031L         CALATAYUD JORDI                         08A080000000000010000 0000000F 0000                     2                                                                                                                      
21822022G1757210841521318Q         CALLE PALMER MARIA CARLOTA              07A080000000000010000 0000000F 0000                     2                                                                                                                      
21822022G1757210877738369W         CAMP SOLDEVILA FINA                     08A035000000000018000 0000000F 0000                     2                                                                                                                      
21822022G1757210848351336T         CAMPILLO MARIA                          46A080000000000015000 0000000F 0000                     2                                                                                                                      
21822022G17572108Y4269191Z         CAMPOS PENA PATRICIA                    08A080000000000003000 0000000F 0000                     2                                                                                                                      
21822022G1757210843687333Y         CAMPS ALBERT                            08A035000000000020000 0000000F 0000                     2                                                                                                                      
21822022G1757210847745408F         CANALS OLIVELLA AIMAR                   08A035000000000030000 0000000F 0000                     2                                                                                                                      
21822022G1757210838850022D         CANDELARIO FRANCISCO                    08A035000000000020000 0000000F 0000                     2                                                                                                                      
21822022G1757210840533425L         CANO HERMOSILLA JOSEP ORIOL             17A035000000000050000 0000000F 0000                     2                                                                                                                      
21822022G1757210843737449M         CANOSA QUIROS MARIA ISABEL              25A035000000000030000 0000000F 0000                     2                                                                                                                      
21822022G1757210846874939L         CANTERO ANDREA                          08A080000000000005000 0000000F 0000                     2                                                                                                                      
21822022G1757210841556215E         CANYET GIFREU DUNA                      17A080000000000008000 0000000F 0000                     2                                                                                                                      
21822022G1757210823250119V         CARCELES ASENSIO MIGUEL ANGEL           30A035000000000017000 0000000F 0000                     2                                                                                                                      
21822022G1757210846673961S         CARDONA JORDI                           08A035000000000030000 0000000F 0000                     2                                                                                                                      
21822022G1757210840310113Z         CARGOL POATER MARINA                    17A035000000000020000 0000000F 0000                     2                                                                                                                      
21822022G17572108Y7204900A         CAROL LUGONES JOHANA CRISTINA           08A080000000000015000 0000000F 0000                     2                                                                                                                      
21822022G1757210843719999N         CARRERA FONTELLES OSCAR                 08A035000000000030000 0000000F 0000                     2                                                                                                                      
21822022G1757210834829074J         CARRILLO CONESA JOSE ANTONIO            30A035000000000020000 0000000F 0000                     2                                                                                                                      
21822022G1757210840315861N         CASADELLA NEGRE JORDI                   17A080000000000005000 0000000F 0000                     2                                                                                                                      
21822022G1757210847906229N         CASAIN PAHISSA MARC                     17A080000000000010000 0000000F 0000                     2                                                                                                                      
21822022G1757210839698375F         CASAS NURIA                             08A035000000000025000 0000000F 0000                     2                                                                                                                      
21822022G1757210843544164N         CASAS GUERRERO ALEJANDRO                08A080000000000010000 0000000F 0000                     2                                                                                                                      
21822022G1757210846407201D         CASES ALBERT                            08A080000000000010000 0000000F 0000                     2                                                                                                                      
21822022G1757210839165297T         CASTANER IGNASI                         25A035000000000032200 0000000F 0000                     2                                                                                                                      
21822022G1757210872043369D         CASTANO ESTEBANEZ ALEXANDRA             07A035000000000019370 0000000F 0000                     2                                                                                                                      
21822022G1757210843552814Z         CASTELLO HENARES CINTIA                 08A035000000000028000 0000000F 0000                     2                                                                                                                      
21822022G1757210820434262G         CASTELLS XAVIER                         08A035000000000031000 0000000F 0000                     2                                                                                                                      
21822022G1757210847727182C         CASTILLA POBO ERIC                      43A080000000000003761 0000000F 0000                     2                                                                                                                      
21822022G17572108Y7427196G         CASTRO CAMPOS RENATA                    28A080000000000001500 0000000F 0000                     2                                                                                                                      
21822022G1757210815431245Q         CASTRO SASTRE RODRIGO                   08A035000000000020000 0000000F 0000                     2                                                                                                                      
21822022G1757210849658685Y         CATARI CARLOS JOS                       08A035000000000032000 0000000F 0000                     2                                                                                                                      
21822022G1757210843706293Z         CAUFAPE SANTI                           25A035000000000030000 0000000F 0000                     2                                                                                                                      
21822022G1757210829193424F         CEREZO DOMINGUEZ REBECA                 46A035000000000030000 0000000F 0000                     2                                                                                                                      
21822022G17572108Y6600284B         CERRITOS DRIOTEZ KATIANA NINOSKA        17A035000000000030250 0000000F 0000                     2                                                                                                                      
21822022G1757210846770617W         CHACON CRUZ CRISTINA                    08A080000000000004300 0000000F 0000                     2                                                                                                                      
21822022G17572108Y4242720Q         CHEN YANCHUN                            08A035000000000030000 0000000F 0000                     2                                                                                                                      
21822022G1757210843519819R         CHITO PERONA ROSA MARIA                 08A035000000000030000 0000000F 0000                     2                                                                                                                      
21822022G1757210844984323A         CLEMENT LLONCH JORDI                    08A080000000000005000 0000000F 0000                     2                                                                                                                      
21822022G1757210830821936G         CLIMENT CARMONA SERGIO                  18A035000000000120000 0000000F 0000                     2                                                                                                                      
21822022G1757210839928746X         COCA ABELLO ALBERT                      43A080000000000015000 0000000F 0000                     2                                                                                                                      
21822022G1757210853028738F         COLAS DEL HOYO ELENA                    08A080000000000015000 0000000F 0000                     2                                                                                                                      
21822022G1757210809066864B         COLLADO ARANDA ALBERTO                  08A035000000000045000 0000000F 0000                     2                                                                                                                      
21822022G1757210805436565D         COLLADO CENTURION HUGO                  35A035000000000030000 0000000F 0000                     2                                                                                                                      
21822022G1757210826197439W         COLLADO JIMENEZ JUAN CARLOS             08A035000000000060000 0000000F 0000                     2                                                                                                                      
21822022G1757210877893005D         COMAMALA GARRIGA MARIA CARMEN           17A080000000000015000 0000000F 0000                     2                                                                                                                      
21822022G1757210847328970F         COMULADA ANDRES FENIX                   28A080000000000015000 0000000F 0000                     2                                                                                                                      
21822022G1757210814307626Q         CONTHE LUCIA                            28A035000000000035000 0000000F 0000                     2                                                                                                                      
21822022G1757210842209449X         CONTRERAS GRACIELA                      08A080000000000003000 0000000F 0000                     2                                                                                                                      
21822022G1757210878931353E         CORBERA IBAI                            17A035000000000020000 0000000F 0000                     2                                                                                                                      
21822022G1757210852217669X         CORELLA PAU                             08A080000000000005000 0000000F 0000                     2                                                                                                                      
21822022G17572108Y0876196W         CORNILLET LYDIA                         08A080000000000007000 0000000F 0000                     2                                                                                                                      
21822022G1757210835044432E         CORREDOR MARTA                          17A080000000000012000 0000000F 0000                     2                                                                                                                      
21822022G17572108X5206835A         CORREIA DE ARAUJO JON EVIL              08A080000000000005000 0000000F 0000                     2                                                                                                                      
21822022G1757210832669543K         COSTOYA FRANCISCO                       15A035000000000032184 0000000F 0000                     2                                                                                                                      
21822022G1757210847323838G         COZODOY FERNANDEZ ERIC                  08A035000000000021000 0000000F 0000                     2                                                                                                                      
21822022G1757210843612545Z         CRESPO PEREZ RICARDO                    38A035000000000030000 0000000F 0000                     2                                                                                                                      
21822022G1757210846798249B         CRUZ SERGIO                             08A035000000000020000 0000000F 0000                     2                                                                                                                      
21822022G1757210874738301P         CUEVAS GARCIA MARINA                    07A080000000000005000 0000000F 0000                     2                                                                                                                      
21822022G1757210846785448K         CUNILLERA ENRIC                         08A080000000000003000 0000000F 0000                     2                                                                                                                      
21822022G1757210824492650L         CYWIS SANDRA                            08A080000000000012000 0000000F 0000                     2                                                                                                                      
21822022G17572108Y7605767A         DAGNINO PAULINA                         08A035000000000020000 0000000F 0000                     2                                                                                                                      
21822022G1757210845352610Z         DASWANI SONIA                           35A035000000000030000 0000000F 0000                     2                                                                                                                      
21822022G1757210839946140Q         DE ALMEIDA MENEZES LEANDRA              08A080000000000007000 0000000F 0000                     2                                                                                                                      
21822022G1757210826950214X         DE BRASDEFER ORTEGA MARTHA GEOVANINA    08A080000000000005000 0000000F 0000                     2                                                                                                                      
21822022G1757210851343651S         DE CASTRO PILAR                         28A035000000000024000 0000000F 0000                     2                                                                                                                      
21822022G17572108Y7876457Y         DE GROOT HESTER                         08A035000000000020000 0000000F 0000                     2                                                                                                                      
21822022G1757210847849888K         DE JOSE HOMS DANIEL                     08A080000000000015000 0000000F 0000                     2                                                                                                                      
21822022G1757210877646333N         DE LA CRUZ LOPEZ ALEJANDRO              23A080000000000010000 0000000F 0000                     2                                                                                                                      
21822022G1757210809780571M         DE LA HUERGA MENENDEZ JORGE             24A035000000000060000 0000000F 0000                     2                                                                                                                      
21822022G17572108Y1321166Z         DE WILDE REMI PAUL                      35A035000000000020000 0000000F 0000                     2                                                                                                                      
21822022G1757210843681518X         DELEGIDO GIMENEZ MIGUEL                 08A035000000000120000 0000000F 0000                     2                                                                                                                      
21822022G1757210846115416W         DELGADO TORRES OLGA                     43A035000000000030000 0000000F 0000                     2                                                                                                                      
21822022G17572108Y5992585H         DEWAR YULIA                             08A035000000000025000 0000000F 0000                     2                                                                                                                      
21822022G1757210853660031L         DEZCALLAR SUSANA                        28A035000000000030000 0000000F 0000                     2                                                                                                                      
21822022G1757210815397726P         DIAZ MARIA                              28A080000000000005000 0000000F 0000                     2                                                                                                                      
21822022G1757210846838417K         DIAZ CARLOS                             07A035000000000020000 0000000F 0000                     2                                                                                                                      
21822022G1757210842836265F         DIAZ PEREZ JOSE MARIA                   35A035000000000020000 0000000F 0000                     2                                                                                                                      
21822022G1757210843564335N         DIAZ REY ANTONIO                        08A035000000000040000 0000000F 0000                     2                                                                                                                      
21822022G1757210833954644C         DIEGO FERNANDEZ PILAR                   08A035000000000025000 0000000F 0000                     2                                                                                                                      
21822022G1757210874944553L         DIEZ GONZALEZ SARA                      29A035000000000050000 0000000F 0000                     2                                                                                                                      
21822022G17572108Y5194272N         DIMASTROGIOVANNI MICHELE                08A080000000000012000 0000000F 0000                     2                                                                                                                      
21822022G17572108X4958335H         DISSMER STEFAN                          08A080000000000015000 0000000F 0000                     2                                                                                                                      
21822022G17572108Y4738727M         DOMAGALSKA MAGDALENA                    08A035000000000030000 0000000F 0000                     2                                                                                                                      
21822022G1757210846702243F         DOMENECH GALLART ANTONI                 08A080000000000010000 0000000F 0000                     2                                                                                                                      
21822022G1757210839724109G         DOMINGUEZ PEREZ LAURA                   43A080000000000010000 0000000F 0000                     2                                                                                                                      
21822022G1757210845332544G         DOMINGUEZ SANTANA ESTER                 35A080000000000005000 0000000F 0000                     2                                                                                                                      
21822022G1757210847832322G         DONALD MANZANO ERIC                     08A080000000000015000 0000000F 0000                     2                                                                                                                      
21822022G17572108Y6399331D         DOS RAMOS NOTO LORENZ                   28A035000000000023800 0000000F 0000                     2                                                                                                                      
21822022G17572108Y0124012X         DOS SANTOS FERREIRA MARIANA             08A080000000000003000 0000000F 0000                     2                                                                                                                      
21822022G1757210835074269M         DRESSAIRE MARTI ALBERT                  25A035000000000016000 0000000F 0000                     2                                                                                                                      
21822022G17572108X4632612K         DUDIER JUAN CARLOS                      08A080000000000010000 0000000F 0000                     2                                                                                                                      
21822022G17572108X9140031S         DUDIK FRUZSINA                          12A080000000000015000 0000000F 0000                     2                                                                                                                      
21822022G1757210843574821X         DURAN BELLO ENYA                        07A080000000000005000 0000000F 0000                     2                                                                                                                      
21822022G1757210848017826J         ECHENIQUE ANCEL LUCIA INES              43A035000000000020000 0000000F 0000                     2                                                                                                                      
21822022G1757210844613963N         ECHEVERRIA ALEGRIA INIGO                31A080000000000015000 0000000F 0000                     2                                                                                                                      
21822022G1757210841025620Z         ECHEVESTE BRUNETTO MARCOS ANDRES        08A080000000000002000 0000000F 0000                     2                                                                                                                      
21822022G17572108Y7334705L         ECKERT TIM JONAS                        38A080000000000009500 0000000F 0000                     2                                                                                                                      
21822022G1757210834087845M         EGIGUREN GURUTZ                         20A035000000000017000 0000000F 0000                     2                                                                                                                      
21822022G17572108Y1981738A         ELIA PIETRO                             03A080000000000010000 0000000F 0000                     2                                                                                                                      
21822022G1757210847620390V         ELIES GOMEZ VICTOR                      08A080000000000003000 0000000F 0000                     2                                                                                                                      
21822022G1757210839473842T         ESCOLA PERAMIQUEL JOAN                  08A080000000000003500 0000000F 0000                     2                                                                                                                      
21822022G1757210839167804T         ESCUDE FERRUSOLA PEP                    08A035000000000025000 0000000F 0000                     2                                                                                                                      
21822022G1757210817761391D         ESCUER ALEJANDRO                        50A080000000000015000 0000000F 0000                     2                                                                                                                      
21822022G1757210852600637M         ESPANA FORCADELL MERCE RAQUEL           08A080000000000015000 0000000F 0000                     2                                                                                                                      
21822022G1757210830264263N         ESPI LOEZ PALOMA                        41A080000000000010000 0000000F 0000                     2                                                                                                                      
21822022G1757210843089252V         ESPINAR MAAT FLOR                       07A035000000000020000 0000000F 0000                     2                                                                                                                      
21822022G1757210840854566B         FALCO RUBINAT EDUARD                    25A035000000000530000 0000000F 0000                     2                                                                                                                      
21822022G1757210836976087E         FARRE TORRENTS ASSUMPTA                 08A035000000000055500 0000000F 0000                     2                                                                                                                      
21822022G1757210843035259M         FERNANDEZ FELIX                         07A080000000000010000 0000000F 0000                     2                                                                                                                      
21822022G1757210809870702E         FERNANDEZ BONIFATI JUAN MANUEL          28A080000000000010000 0000000F 0000                     2                                                                                                                      
21822022G1757210838559436M         FERNANDEZ BORJA NURIA                   08A080000000000011000 0000000F 0000                     2                                                                                                                      
21822022G1757210847613570M         FERNANDEZ BUENO ANTONIO                 08A035000000000024000 0000000F 0000                     2                                                                                                                      
21822022G1757210845547077Q         FERNANDEZ GARCIA SAMUEL                 08A035000000000030000 0000000F 0000                     2                                                                                                                      
21822022G1757210805206664Q         FERNANDEZ GARCIA PABLO                  28A035000000000045000 0000000F 0000                     2                                                                                                                      
21822022G1757210834946765J         FERNANDEZ GOMEZ JESUS OSCAR             28A080000000000012000 0000000F 0000                     2                                                                                                                      
21822022G1757210847683425D         FERNANDEZ GONZALEZ DAVID                25A035000000000030000 0000000F 0000                     2                                                                                                                      
21822022G1757210879282834V         FERNANDEZ JIMENEZ LUCILA                08A080000000000010000 0000000F 0000                     2                                                                                                                      
21822022G1757210839354129W         FERNANDEZ RUIZ CANELA JOSE              08A080000000000005500 0000000F 0000                     2                                                                                                                      
21822022G1757210846624756F         FERNANDEZ TORRUELLA MARIA               08A035000000000035000 0000000F 0000                     2                                                                                                                      
21822022G1757210843165557P         FERNANDEZ VIZOSO LUIS                   07A035000000000020000 0000000F 0000                     2                                                                                                                      
21822022G1757210839679914S         FERRE SANCHEZ OSCAR                     43A080000000000004000 0000000F 0000                     2                                                                                                                      
21822022G1757210878093737C         FERRER CASTELLA IVAN                    25A080000000000000500 0000000F 0000                     2                                                                                                                      
21822022G1757210835034456M         FERRERES DURAN ENRIC                    17A080000000000010000 0000000F 0000                     2                                                                                                                      
21822022G1757210877287384R         FERRET RAVENTOS MONTSERRAT              08A080000000000006000 0000000F 0000                     2                                                                                                                      
21822022G17572108Y3629571R         FESTINO AGUSTIN                         26A080000000000007500 0000000F 0000                     2                                                                                                                      
21822022G1757210847946737V         FIZ VIOLA JERONIMO MANUEL               08A035000000000016000 0000000F 0000                     2                                                                                                                      
21822022G1757210821753424R         FLORES BANUELOS SILVIA SUSANA           08A080000000000006000 0000000F 0000                     2                                                                                                                      
21822022G1757210852845956Y         FLORIDO MAYOR ISABEL                    35A080000000000010000 0000000F 0000                     2                                                                                                                      
21822022G1757210840999575M         FOLCH POL                               08A080000000000010000 0000000F 0000                     2                                                                                                                      
21822022G1757210844050129T         FONCUBIERTA VARO TAMARA                 11A080000000000010000 0000000F 0000                     2                                                                                                                      
21822022G1757210843711481G         FONDEVILA RUCHE ANGELS                  17A080000000000010000 0000000F 0000                     2                                                                                                                      
21822022G1757210840353677Q         FONT CORNELLA MARC                      08A080000000000003000 0000000F 0000                     2                                                                                                                      
21822022G1757210839388166E         FORT PAU                                08A035000000000020000 0000000F 0000                     2                                                                                                                      
21822022G1757210843522938S         FORT PORTELLA MARINA                    08A080000000000010000 0000000F 0000                     2                                                                                                                      
21822022G1757210833865588C         FORTUNY GUASCH MARIA PILAR              25A080000000000004000 0000000F 0000                     2                                                                                                                      
21822022G17572108Y7106786F         FORUHAR SEPEHR KATAYOON                 08A080000000000015000 0000000F 0000                     2                                                                                                                      
21822022G17572108Y9480539E         FRANCO SANTIAGO                         08A035000000000020000 0000000F 0000                     2                                                                                                                      
21822022G1757210847838077D         FRANQUESA GRISO ANAIS                   08A080000000000012000 0000000F 0000                     2                                                                                                                      
21822022G1757210846353821N         FRECHINE PARRA LUCIA                    08A080000000000012000 0000000F 0000                     2                                                                                                                      
21822022G17572108X2212912J         FREUNDLINGER EDUARD                     18A035000000000050000 0000000F 0000                     2                                                                                                                      
21822022G1757210830495134D         FUENTES PARTERA SALVADOR RAFAEL         43A035000000000070000 0000000F 0000                     2                                                                                                                      
21822022G17572108X2653442R         FUKUDA SAWAKO                           08A080000000000015000 0000000F 0000                     2                                                                                                                      
21822022G17572108Y1772665T         FURDUI LOREDANA                         08A080000000000015000 0000000F 0000                     2                                                                                                                      
21822022G1757210842297076F         GAGGIOTTI LERNER ESTEFANIA              17A080000000000015000 0000000F 0000                     2                                                                                                                      
21822022G1757210830796846F         GALADI GARCIA JAVIER ALEJANDRO          08A080000000000013000 0000000F 0000                     2                                                                                                                      
21822022G1757210825095656B         GALISTEO ROBLES FRANCISCO JAVIER        29A035000000000020000 0000000F 0000                     2                                                                                                                      
21822022G17572108Y5511857J         GALLI LUCIA                             08A080000000000005000 0000000F 0000                     2                                                                                                                      
21822022G1757210846700352W         GARCIA CLARA                            08A035000000000030000 0000000F 0000                     2                                                                                                                      
21822022G17572108X1963160H         GARCIA ERIC                             08A035000000000036000 0000000F 0000                     2                                                                                                                      
21822022G1757210813750888Q         MARIA GARCIA PEREZ                      07A080000000000010000 0000000F 0000                     2                                                                                                                      
21822022G1757210846130052X         GARCIA ISABEL                           08A080000000000010000 0000000F 0000                     2                                                                                                                      
21822022G1757210813159890A         GARCIA FERNANDEZ VANESSA                09A080000000000002000 0000000F 0000                     2                                                                                                                      
21822022G1757210830260641R         GARCIA GIJON FERNANDO                   08A035000000000030000 0000000F 0000                     2                                                                                                                      
21822022G1757210873766238V         GARCIA GONZALEZ RAFAEL                  03A080000000000015000 0000000F 0000                     2                                                                                                                      
21822022G1757210837747294Q         GARCIA LLANOS M LUISA                   08A035000000000030000 0000000F 0000                     2                                                                                                                      
21822022G1757210843564249H         GARCIA MARTINEZ MINERVA                 08A035000000000030000 0000000F 0000                     2                                                                                                                      
21822022G1757210852788112F         GARCIA MARTINEZ ANTONIA                 46A035000000000040000 0000000F 0000                     2                                                                                                                      
21822022G1757210823858951Q         GARCIA MONROY RAFAEL                    08A035000000000030000 0000000F 0000                     2                                                                                                                      
21822022G1757210848957627B         GARCIA MORENO JOSE MIGUEL               02A080000000000003000 0000000F 0000                     2                                                                                                                      
21822022G1757210838067431Q         GARCIA ROBLES PACO                      08A035000000000059000 0000000F 0000                     2                                                                                                                      
21822022G1757210853301402Y         GARCIA ROSENDE LYDIA                    15A080000000000010000 0000000F 0000                     2                                                                                                                      
21822022G1757210846871027V         GARCIA SABATE DAVID                     28A080000000000013000 0000000F 0000                     2                                                                                                                      
21822022G1757210833879151J         GARCIA VALLDEPERAS M LUISA              08A035000000000020000 0000000F 0000                     2                                                                                                                      
21822022G1757210820473427T         GARCIA VIDAL LUCIA                      12A080000000000015000 0000000F 0000                     2                                                                                                                      
21822022G1757210843533880D         GARVIN RODRIGUEZ MARCOS                 08A035000000000040000 0000000F 0000                     2                                                                                                                      
21822022G17572108Y5373354Q         GAUTHIER XAVIER                         08A080000000000012500 0000000F 0000                     2                                                                                                                      
21822022G17572108X7094309M         GEE NIINA                               22A080000000000011500 0000000F 0000                     2                                                                                                                      
21822022G17572108Y9179856H         GEISSLER JACQUELINE CINZIA              08A080000000000015000 0000000F 0000                     2                                                                                                                      
21822022G1757210849184458Q         GIL BOFILL MERCE                        08A035000000000020000 0000000F 0000                     2                                                                                                                      
21822022G1757210878945326B         GIMENO MARIA                            48A035000000000035000 0000000F 0000                     2                                                                                                                      
21822022G1757210841571840F         GIORGINI GARCIA MARTA                   25A080000000000002000 0000000F 0000                     2                                                                                                                      
21822022G1757210847592894Y         GIRALDO RAMIREZ FELIPE ALEJANDRO        08A035000000000050000 0000000F 0000                     2                                                                                                                      
21822022G1757210839735491R         GIRALT MEDIR LAIA                       08A035000000000050000 0000000F 0000                     2                                                                                                                      
21822022G1757210847658870H         GLAHN LLOPART ERICH                     08A035000000000035000 0000000F 0000                     2                                                                                                                      
21822022G1757210835058728N         GOLMAYO BOADA MAITE                     08A035000000000037000 0000000F 0000                     2                                                                                                                      
21822022G17572108Y8991769W         GOMEZ ABARCA PAMELA                     08A080000000000010000 0000000F 0000                     2                                                                                                                      
21822022G1757210874864456P         GOMEZ BARCELO ELSA MARINA               28A035000000000060000 0000000F 0000                     2                                                                                                                      
21822022G1757210846733477F         GOMEZ CARDENAS DAVID                    08A080000000000007500 0000000F 0000                     2                                                                                                                      
21822022G1757210838134643E         GOMEZ FELIP CRISTINA                    08A080000000000010000 0000000F 0000                     2                                                                                                                      
21822022G1757210840451523C         GOMEZ LUQUE ROBERTO                     08A080000000000010000 0000000F 0000                     2                                                                                                                      
21822022G1757210846769768G         GONZALEZ ROGER                          08A080000000000002000 0000000F 0000                     2                                                                                                                      
21822022G1757210846504700B         GONZALEZ BATALLER DAVID                 08A035000000000020000 0000000F 0000                     2                                                                                                                      
21822022G1757210846506629P         GONZALEZ BROX ROSA MARIA                08A080000000000015000 0000000F 0000                     2                                                                                                                      
21822022G1757210851093374R         GONZALEZ CARBALLO SARA                  12A035000000000020000 0000000F 0000                     2                                                                                                                      
21822022G17572108Y8817874X         GONZALEZ FUENTES CARMEN LEONOR          08A080000000000005000 0000000F 0000                     2                                                                                                                      
21822022G1757210844492320Q         GONZALEZ GOMEZ SONIA                    08A035000000000025000 0000000F 0000                     2                                                                                                                      
21822022G1757210846594162A         GONZALEZ LOPEZ MANUEL                   08A035000000000025000 0000000F 0000                     2                                                                                                                      
21822022G1757210820260938P         GONZALEZ RODRIGUEZ JOSE FERMIN          28A035000000000020000 0000000F 0000                     2                                                                                                                      
21822022G1757210848070059J         GONZALEZ SALAZAR URIEL                  08A080000000000007000 0000000F 0000                     2                                                                                                                      
21822022G17572108X1542137X         GOODMAN JONATHAN                        08A080000000000010000 0000000F 0000                     2                                                                                                                      
21822022G17572108X6190715N         GORGON MONIKA ANNA                      08A080000000000008000 0000000F 0000                     2                                                                                                                      
21822022G1757210843711245K         GORGUES SENDRA MARTA                    08A035000000000038000 0000000F 0000                     2                                                                                                                      
21822022G1757210841008769E         GORRIZ LOPEZ LAURA                      08A035000000000025000 0000000F 0000                     2                                                                                                                      
21822022G1757210846121888B         GOSALBEZ RAFEL PATRICIA                 08A035000000000042000 0000000F 0000                     2                                                                                                                      
21822022G1757210851125768B         GRANADOS PRADO ANA LUNA                 08A035000000000030000 0000000F 0000                     2                                                                                                                      
21822022G17572108Y7031874Y         GREEN HEIDI                             22A035000000000063000 0000000F 0000                     2                                                                                                                      
21822022G1757210842744521X         GUERRA ARABOLAZA OLGA                   07A035000000000135000 0000000F 0000                     2                                                                                                                      
21822022G1757210852593537N         GUISADO LORENZO ANGEL                   08A080000000000004000 0000000F 0000                     2                                                                                                                      
21822022G1757210811406667R         GUTIERREZ TUDELA MARIA DEL CARMEN       33A080000000000015000 0000000F 0000                     2                                                                                                                      
21822022G1757210843550520C         HAGE CRISTINA                           08A080000000000013300 0000000F 0000                     2                                                                                                                      
21822022G17572108Y8067379M         HALFON MARVYN                           08A035000000000020000 0000000F 0000                     2                                                                                                                      
21822022G17572108Y3047261M         HELMER ANGELA SUE                       29A035000000000020000 0000000F 0000                     2                                                                                                                      
21822022G1757210838171749Y         HEREDIA TAPIA MARCOS                    08A080000000000004000 0000000F 0000                     2                                                                                                                      
21822022G17572108Y2216198R         HERMOSO GONZALEZ LUIS ERNESTO           08A080000000000005000 0000000F 0000                     2                                                                                                                      
21822022G1757210847642351J         HERNANDEZ DAVID                         08A035000000000030000 0000000F 0000                     2                                                                                                                      
21822022G17572108Y3274801Y         HERNANDEZ CARRANZA MILAGROS LEONOR      28A080000000000015000 0000000F 0000                     2                                                                                                                      
21822022G1757210837731456W         HERNANDEZ GINER GUADALUPE               08A080000000000010000 0000000F 0000                     2                                                                                                                      
21822022G1757210834760768V         HERNANDEZ LOPEZ EMILIO                  08A080000000000005000 0000000F 0000                     2                                                                                                                      
21822022G1757210871133399B         HERRERO ARNANZ SARA                     47A035000000000020000 0000000F 0000                     2                                                                                                                      
21822022G17572108Y7410101K         HERRERO CAPITANICH MARIA ALEJANDRA      08A080000000000005000 0000000F 0000                     2                                                                                                                      
21822022G1757210838056604E         HERRERO MORERA CARMEN                   17A080000000000015000 0000000F 0000                     2                                                                                                                      
21822022G1757210824360392B         HERVAS CERCOS JULIO                     46A035000000000051050 0000000F 0000                     2                                                                                                                      
21822022G17572108X5830369F         HESS MAXIMILLIAN EMANUELE               07A035000000000025000 0000000F 0000                     2                                                                                                                      
21822022G1757210843533044R         HIDALGO JAVIER                          08A080000000000004000 0000000F 0000                     2                                                                                                                      
21822022G17572108Y4866458V         HIGUERA FREDDY                          08A080000000000011000 0000000F 0000                     2                                                                                                                      
21822022G1757210847312736B         HO CARMONA JESSICA                      08A080000000000015000 0000000F 0000                     2                                                                                                                      
21822022G17572108Y0714222V         HOPPE ELISABETH                         08A080000000000005000 0000000F 0000                     2                                                                                                                      
21822022G1757210830374480J         HUESA ATAS MAYTE                        08A080000000000006000 0000000F 0000                     2                                                                                                                      
21822022G17572108Y7223000W         IBANEZ NICOLAS                          08A035000000000030000 0000000F 0000                     2                                                                                                                      
21822022G1757210818599822K         IBANEZ DE GAUNA MORAN MONICA            01A035000000000034000 0000000F 0000                     2                                                                                                                      
21822022G1757210816088125Q         IBARGURENGOITIA ALBERDI MAIDER          48A035000000000020000 0000000F 0000                     2                                                                                                                      
21822022G17572108X7014846F         ILCIUKAITE KRISTINA                     18A080000000000010000 0000000F 0000                     2                                                                                                                      
21822022G1757210816299599M         INCHAURBE JORGE                         01A080000000000001185 0000000F 0000                     2                                                                                                                      
21822022G1757210852718294V         INSA MARTINEZ REGINA                    08A035000000000045000 0000000F 0000                     2                                                                                                                      
21822022G1757210846322590S         IRANZO DIAZ RUFINO                      17A080000000000005000 0000000F 0000                     2                                                                                                                      
21822022G1757210830615834M         IRUETA ISUSI AINHOA                     08A080000000000008000 0000000F 0000                     2                                                                                                                      
21822022G1757210847967122R         IZQUIERDO GIMENO ALEJANDRO              08A080000000000002000 0000000F 0000                     2                                                                                                                      
21822022G1757210806660453K         JARAMILLO MEDINA ESTEFANIA              08A080000000000007700 0000000F 0000                     2                                                                                                                      
21822022G17572108Y4702690D         JESSEN WILKO                            04A035000000000035000 0000000F 0000                     2                                                                                                                      
21822022G1757210845125293Y         JIMENEZ CARRANZA ORIOL                  08A080000000000010000 0000000F 0000                     2                                                                                                                      
21822022G1757210816222918Y         JIMENEZ DE ABERASTURI BERGANZO MILAGROS 08A080000000000007500 0000000F 0000                     2                                                                                                                      
21822022G1757210806540431J         JIMENEZ ESTEBAN MARIBEL                 07A080000000000012200 0000000F 0000                     2                                                                                                                      
21822022G1757210819891866V         JIMENEZ SANCHEZ MARIA DEL MAR           07A035000000000020000 0000000F 0000                     2                                                                                                                      
21822022G1757210840316987B         JIMENEZ XIBERTA CLARA                   17A035000000000183605 0000000F 0000                     2                                                                                                                      
21822022G17572108X8607774R         JOHNSON ERIC                            08A080000000000015000 0000000F 0000                     2                                                                                                                      
21822022G1757210847813460W         JORQUERA GRAU JOAN                      08A035000000000045000 0000000F 0000                     2                                                                                                                      
21822022G1757210839888996G         JUAN MARTA                              07A035000000000064000 0000000F 0000                     2                                                                                                                      
21822022G1757210847639639S         JUAN LLAO BERNAT                        08A035000000000025000 0000000F 0000                     2                                                                                                                      
21822022G1757210839422440A         JUNCADELLA PANADES MARTA                08A080000000000005000 0000000F 0000                     2                                                                                                                      
21822022G1757210839856207J         JURADO ISABEL                           43A080000000000015000 0000000F 0000                     2                                                                                                                      
21822022G1757210873498691Y         JUSTE BIELSA ANTONIO                    22A035000000000030000 0000000F 0000                     2                                                                                                                      
21822022G1757210854873216T         JUSTEL SEGUY MARIA VICTORIA             07A080000000000006000 0000000F 0000                     2                                                                                                                      
21822022G17572108X3256866C         KORNUS WOLFGANG                         08A035000000000120000 0000000F 0000                     2                                                                                                                      
21822022G17572108Y1660552N         KUDRYASHOV ALEXANDER                    08A035000000000020000 0000000F 0000                     2                                                                                                                      
21822022G17572108Y7003114L         LABATE FEDERICO HERNAN                  08A080000000000005000 0000000F 0000                     2                                                                                                                      
21822022G17572108Y6801742N         LACOPPOLA NADIA MARIEL                  08A080000000000003000 0000000F 0000                     2                                                                                                                      
21822022G1757210847324157R         LAFORET COLL MARTA                      08A080000000000006000 0000000F 0000                     2                                                                                                                      
21822022G17572108Y4935247J         LAMBRUSCHINI MELISA                     07A080000000000010000 0000000F 0000                     2                                                                                                                      
21822022G1757210833535849D         LANOUAR LOPEZ HAYAT                     08A080000000000002000 0000000F 0000                     2                                                                                                                      
21822022G1757210816565979E         LAPENA JOSUE                            26A035000000000019200 0000000F 0000                     2                                                                                                                      
21822022G1757210833243418T         LEMA FREIRE MANUELA                     08A080000000000004000 0000000F 0000                     2                                                                                                                      
21822022G1757210848017872J         LEON MORGADO CRISTIAN                   43A080000000000010500 0000000F 0000                     2                                                                                                                      
21822022G17572108X8057298F         LIFSCHITZ DAVID                         08A035000000000022200 0000000F 0000                     2                                                                                                                      
21822022G1757210852335654M         LINARES DE LA BASTIDA ANDRES            11A080000000000013500 0000000F 0000                     2                                                                                                                      
21822022G17572108X7301890B         LISBOA JOAO                             08A080000000000010000 0000000F 0000                     2                                                                                                                      
21822022G1757210878084944J         LLADOS SOLE ANNA                        25A080000000000015000 0000000F 0000                     2                                                                                                                      
21822022G1757210837363948B         LLOPART TUGAS ANTONIA                   08A035000000000037500 0000000F 0000                     2                                                                                                                      
21822022G1757210878093974G         LLORENS GUIM MARC                       25A080000000000002000 0000000F 0000                     2                                                                                                                      
21822022G1757210877306703T         LLORET MONTSE                           08A080000000000013000 0000000F 0000                     2                                                                                                                      
21822022G1757210847968982K         LLOVERA LOPEZ LIDIA                     08A080000000000010000 0000000F 0000                     2                                                                                                                      
21822022G17572108Y9260426L         LONARDI SANDRO                          08A035000000000040050 0000000F 0000                     2                                                                                                                      
21822022G1757210851891277B         LOPERA SAEZ JOSE ANTONIO                46A035000000000025000 0000000F 0000                     2                                                                                                                      
21822022G1757210844615208S         LOPEZ IGNACIO                           31A035000000000100000 0000000F 0000                     2                                                                                                                      
21822022G1757210877510318L         LOPEZ JOAQUINA                          08A035000000000022000 0000000F 0000                     2                                                                                                                      
21822022G1757210817153296B         LOPEZ JOSE                              17A080000000000001000 0000000F 0000                     2                                                                                                                      
21822022G1757210872800665F         LOPEZ ARANGUREN JUAN LUIS               31A035000000000030000 0000000F 0000                     2                                                                                                                      
21822022G1757210803896269T         LOPEZ BENITO PENELOPE                   03A080000000000002000 0000000F 0000                     2                                                                                                                      
21822022G1757210845932748T         LOPEZ FIGUERAS OCTAVI                   08A080000000000015000 0000000F 0000                     2                                                                                                                      
21822022G1757210875875233G         LOPEZ RAMOS MAR                         11A035000000000016600 0000000F 0000                     2                                                                                                                      
21822022G1757210872455207D         LOPEZ TELLERIA IKER                     20A080000000000012000 0000000F 0000                     2                                                                                                                      
21822022G1757210843103481D         LORIENTE DUCRET SILVIA ELISABETH        07A035000000000050000 0000000F 0000                     2                                                                                                                      
21822022G1757210816081677P         LORONO GAIZKA                           48A035000000000025000 0000000F 0000                     2                                                                                                                      
21822022G1757210852689443P         LOZANO M JOSE                           28A080000000000009000 0000000F 0000                     2                                                                                                                      
21822022G17572108Y6554057Z         LUCERO ALVAREZ ROCIO                    08A080000000000002500 0000000F 0000                     2                                                                                                                      
21822022G17572108Y6826253M         LUGO CESAR                              08A035000000000032000 0000000F 0000                     2                                                                                                                      
21822022G17572108Y4729220C         LUJANO SABRINA                          08A080000000000010000 0000000F 0000                     2                                                                                                                      
21822022G17572108X3081915F         MACI GIOVANNI                           07A035000000000022000 0000000F 0000                     2                                                                                                                      
21822022G1757210820005652E         MALONDA ROSA                            46A080000000000008000 0000000F 0000                     2                                                                                                                      
21822022G17572108Y5025435H         MAMDY SUZON                             08A080000000000015000 0000000F 0000                     2                                                                                                                      
21822022G1757210852477615X         MANERO IGLESIAS BORJA                   28A035000000000050000 0000000F 0000                     2                                                                                                                      
21822022G1757210873138464M         MAQUIRRIAIN JAVIER                      08A080000000000003000 0000000F 0000                     2                                                                                                                      
21822022G17572108Y7749801B         MARCHESI MARIA LARA                     08A035000000000036000 0000000F 0000                     2                                                                                                                      
21822022G1757210854054997Y         MARCO MARTINEZ LAIA                     08A080000000000012000 0000000F 0000                     2                                                                                                                      
21822022G17572108Y8711374T         MARCONE JULIAN                          08A080000000000015000 0000000F 0000                     2                                                                                                                      
21822022G1757210843063056H         MARIN PADILLA MARIA JOSE                07A080000000000015000 0000000F 0000                     2                                                                                                                      
21822022G1757210837733349D         MARMOLEJO ROMERO MARIA                  08A080000000000002000 0000000F 0000                     2                                                                                                                      
21822022G1757210878075127V         MARQUES JIMENEZ MARIA MERCEDES          25A035000000000020000 0000000F 0000                     2                                                                                                                      
21822022G1757210833468785J         MARTI GIL JOSEP                         46A035000000000020000 0000000F 0000                     2                                                                                                                      
21822022G1757210834734252C         MARTI SERRA MERCE                       08A035000000000025000 0000000F 0000                     2                                                                                                                      
21822022G1757210820197802F         MARTIN ONTANON ESTEFANIA                07A080000000000015000 0000000F 0000                     2                                                                                                                      
21822022G1757210871101566X         MARTINEZ IGNACIO                        28A035000000000030000 0000000F 0000                     2                                                                                                                      
21822022G17572108Y9601623B         MARTINEZ BELEN MAGALI                   08A035000000000022000 0000000F 0000                     2                                                                                                                      
21822022G1757210879333640Q         MARTINEZ ANON ALEXANDRA                 38A080000000000005000 0000000F 0000                     2                                                                                                                      
21822022G1757210852655993T         MARTINEZ ARENCIBIA ELENA                08A080000000000005000 0000000F 0000                     2                                                                                                                      
21822022G1757210830213437Q         MARTINEZ BIDON RUIZ MARINA              07A035000000000020000 0000000F 0000                     2                                                                                                                      
21822022G1757210820189706F         MARTINEZ CAPARROS ADRIANA               17A035000000000030000 0000000F 0000                     2                                                                                                                      
21822022G1757210849073127M         MARTINEZ GARCIA GERMAN                  41A080000000000012000 0000000F 0000                     2                                                                                                                      
21822022G1757210845648759S         MARTINEZ GUERRERO ISMAEL                08A080000000000015000 0000000F 0000                     2                                                                                                                      
21822022G1757210876069334P         MARTINEZ LOPEZ JAVIER                   18A080000000000009000 0000000F 0000                     2                                                                                                                      
21822022G1757210835019619A         MARTINEZ SILVESTRE NEUS                 08A035000000000026000 0000000F 0000                     2                                                                                                                      
21822022G1757210838794992H         MAS LLUIS MARIA                         08A035000000000070000 0000000F 0000                     2                                                                                                                      
21822022G1757210846637455X         MASSANA SANCHEZ JOAQUIM                 08A035000000000016500 0000000F 0000                     2                                                                                                                      
21822022G1757210852278582L         MATA GARCIA JOSE LUIS                   08A035000000000067000 0000000F 0000                     2                                                                                                                      
21822022G1757210847284123X         MATEO RENOVELL ANDREA                   23A080000000000015000 0000000F 0000                     2                                                                                                                      
21822022G17572108Y4929105N         MATTEUCCI VICTORIA                      08A080000000000005000 0000000F 0000                     2                                                                                                                      
21822022G17572108Y7106885Z         MAURICIO FACUNDO                        08A035000000000025000 0000000F 0000                     2                                                                                                                      
21822022G17572108X3091180A         WINDHOLTZ LYDIA                         04A035000000000024000 0000000F 0000                     2                                                                                                                      
