11822019G17572108FUNDACION PRIVADA VIPASSANA             T972269746KARMASS MOHAMED                         1820542503963  00000000000000000025730000000550224361                                                                                          
21822019G1757210846450647P         MONGE AYLAGAS SERGIO                    08A030000000000020000 0000000F 0000                     2                                                                                                                      
21822019G1757210873582690D         MORENO PIERA FRAN                       46A030000000000022000 0000000F 0000                     2                                                                                                                      
21822019G1757210846319749A         NAVARRO PERE JOSEP                      43A075000000000010000 0000000F 0000                     2                                                                                                                      
21822019G1757210851080435B         MONSALVE MANUELA                        03A075000000000015000 0000000F 0000                     2                                                                                                                      
21822019G1757210851786134R         CAFFARATTI GIRO YANINA                  28A075000000000012000 0000000F 0000                     2                                                                                                                      
21822019G17572108                  VALIVARTHI RAJU                         99A075000000000012000 0000000F 0000                     2                                                                                                                      
21822019G17572108                  MAGNO JOANA                             99A075000000000010000 0000000F 0000                     2                                                                                                                      
21822019G1757210876439880R         CUESTA MESA SILVIA ANA                  18A075000000000015000 0000000F 0000                     2                                                                                                                      
21822019G1757210847779397W         SANUDO NEUS                             08A075000000000010000 0000000F 0000                     2                                                                                                                      
21822019G17572108                  MARTIN MATEO SARA                       99A075000000000010000 0000000F 0000                     2                                                                                                                      
21822019G1757210877730322M         ILLA PUIG ANGEL                         08A075000000000015000 0000000F 0000                     2                                                                                                                      
21822019G1757210846115416W         DELGADO TORRES OLGA                     43A030000000000030000 0000000F 0000                     2                                                                                                                      
21822019G1757210825994071T         ORDONEZ CANADA LOURDES                  23A030000000000090000 0000000F 0000                     2                                                                                                                      
21822019G1757210872499190Q         OYARZABAL AINGERU                       20A030000000000020000 0000000F 0000                     2                                                                                                                      
21822019G1757210853646680P         DE ANTONIO ALEJANDRO                    48A075000000000015000 0000000F 0000                     2                                                                                                                      
21822019G17572108                  FARAUS TIM                              99A075000000000015000 0000000F 0000                     2                                                                                                                      
21822019G1757210832618069K         SEIJAS PARDO ANTONIO                    15A035000000000049000 0000000F 0000                     1                                                                                                                      
21822019G17572108                  BAGDIUL IVONA                           99A030000000000100000 0000000F 0000                     2                                                                                                                      
21822019G17572108X2679912K         MARINELLI STEFANO                       08A030000000000019000 0000000F 0000                     2                                                                                                                      
21822019G1757210874674993L         FAJARDO DOLORES                         18A075000000000010000 0000000F 0000                     2                                                                                                                      
21822019G17572108Y2999671W         ARCERI ELISA                            46A030000000000025000 0000000F 0000                     2                                                                                                                      
21822019G1757210830503483D         HENS PEREZ LUIS                         35A030000000000440000 0000000F 0000                     2                                                                                                                      
21822019G1757210832665600B         BANOBRE GONZALEZ FRANCISCO              15A030000000000020000 0000000F 0000                     2                                                                                                                      
21822019G17572108                  BARBOSA LEAO MOREIRA DA SILVA SARA      99A075000000000006000 0000000F 0000                     2                                                                                                                      
21822019G17572108                  RUIZ CASTILLO ANGEL                     99A030000000000114000 0000000F 0000                     2                                                                                                                      
21822019G17572108                  ZILLMER HENRIK                          99A030000000000050000 0000000F 0000                     2                                                                                                                      
21822019G17572108Y0000187V         PFEIL ANNA                              48A075000000000011000 0000000F 0000                     2                                                                                                                      
21822019G17572108                  LUIS MATIAS                             99A030000000000035000 0000000F 0000                     2                                                                                                                      
21822019G17572108X2993018M         MIGNONE ALESSIA                         28A030000000000030000 0000000F 0000                     2                                                                                                                      
21822019G1757210843116068S         MARTINEZ SUAU ALEIX                     07A030000000000040000 0000000F 0000                     2                                                                                                                      
21822019G1757210811707548L         OSORIO LOBO FEDERICO                    40A035000000000030000 0000000F 0000                     1                                                                                                                      
21822019G17572108X1978656N         FILIPE HUGO                             28A075000000000015000 0000000F 0000                     2                                                                                                                      
21822019G1757210800220937E         GARCIA VILLA JUAN MANUEL                28A075000000000010000 0000000F 0000                     2                                                                                                                      
21822019G17572108X4611808D         TABONI THIERRY                          38A075000000000010000 0000000F 0000                     2                                                                                                                      
21822019G1757210878967337B         RUIZ MUNOZ MARIA                        11A030000000000020000 0000000F 0000                     2                                                                                                                      
21822019G17572108                  YAP LYNN                                99A075000000000010000 0000000F 0000                     2                                                                                                                      
21822019G1757210851699623Q         RAMPEREZ GOMEZ FERNANDO                 07A035000000000030000 0000000F 0000                     1                                                                                                                      
21822019G1757210838811653G         CAROL PONS ENRIC                        17A075000000000010000 0000000F 0000                     2                                                                                                                      
21822019G17572108                  MANTYMAKI TONI JERE MATIAS              99A075000000000011000 0000000F 0000                     2                                                                                                                      
21822019G17572108Y3616514P         KOMINIS THEO                            28A030000000000020000 0000000F 0000                     2                                                                                                                      
21822019G17572108Y2465965B         LEY DOMINIK                             08A030000000000020000 0000000F 0000                     2                                                                                                                      
21822019G1757210879386542H         PEREVOZNYK FILATOVA OKSANA              29A030000000000027000 0000000F 0000                     2                                                                                                                      
21822019G1757210807045573Y         COTRINA COTRINA SATURNINO               10A030000000000020000 0000000F 0000                     2                                                                                                                      
21822019G1757210871341948L         MARTINEZ ALVAREZ ISRAEL                 32A075000000000003000 0000000F 0000                     2                                                                                                                      
21822019G1757210805285982F         GIL MARTIN TERESA                       28A075000000000010000 0000000F 0000                     2                                                                                                                      
21822019G1757210850455187H         LOPEZ MARIA                             28A030000000000025000 0000000F 0000                     2                                                                                                                      
21822019G1757210822530378S         GARCIA WONENBURGER MARIA LUISA          18A075000000000015000 0000000F 0000                     2                                                                                                                      
21822019G1757210833280034T         AIDO SUAREZ SUSANA                      15A030000000000020000 0000000F 0000                     2                                                                                                                      
21822019G1757210817748743B         RODRIGUEZ VINADO RAQUEL                 18A075000000000005000 0000000F 0000                     2                                                                                                                      
21822019G17572108X3507347P         DOSS JANA                               11A075000000000010000 0000000F 0000                     2                                                                                                                      
21822019G17572108                  DARIBON MARIA                           99A075000000000015000 0000000F 0000                     2                                                                                                                      
21822019G1757210812765929D         ALVAREZ LORENZO MONICA                  47A075000000000015000 0000000F 0000                     2                                                                                                                      
21822019G1757210846952903J         MARTINI BUFI BEATRIZ                    07A075000000000015000 0000000F 0000                     2                                                                                                                      
21822019G1757210816244463T         CANO PEREZ PABLO                        28A030000000000027000 0000000F 0000                     2                                                                                                                      
21822019G17572108                  DE PABLO CARLA MARTIN                   99A075000000000012000 0000000F 0000                     2                                                                                                                      
21822019G17572108                  GALVAO PEDRO                            99A075000000000008000 0000000F 0000                     2                                                                                                                      
21822019G17572108Y0203198F         SEARLE LUCAS                            11A030000000000026000 0000000F 0000                     2                                                                                                                      
21822019G17572108                  SPEE MARCO                              99A030000000000020000 0000000F 0000                     2                                                                                                                      
21822019G17572108                  VAN TONGEREN THIJS                      99A030000000000047000 0000000F 0000                     2                                                                                                                      
21822019G17572108                  MOORE AOIFE                             99A075000000000010000 0000000F 0000                     2                                                                                                                      
21822019G1757210847227959N         LOPEZ ANDRINAL CLAUDIA                  28A075000000000010000 0000000F 0000                     2                                                                                                                      
21822019G1757210843519819R         CHITO PERONA ROSA MARIA                 08A030000000000020000 0000000F 0000                     2                                                                                                                      
21822019G1757210813303505Y         BENAVIDES FERNANDEZ NORBERTO            26A030000000000020000 0000000F 0000                     2                                                                                                                      
21822019G17572108                  MEYER TIMO                              99A030000000000050000 0000000F 0000                     2                                                                                                                      
21822019G17572108                  LIS SANTOS ROMAO MARIA DA GRACA         99A075000000000015000 0000000F 0000                     2                                                                                                                      
21822019G17572108X2856902A         MORAN CHRYSTELLE                        28A030000000000030000 0000000F 0000                     2                                                                                                                      
21822019G1757210816579251T         FERNANDEZ MARTINEZ TAMARA               26A030000000000020000 0000000F 0000                     2                                                                                                                      
21822019G1757210847111155W         HERNANDEZ CASTELLVI CRISTIAN            08A030000000000017000 0000000F 0000                     2                                                                                                                      
21822019G17572108                  RIZZO ANNA MARIA                        99A030000000000016500 0000000F 0000                     2                                                                                                                      
21822019G17572108                  GODINHO MARTA                           99A075000000000010500 0000000F 0000                     2                                                                                                                      
21822019G17572108                  CLEMENT DAMIEN                          99A075000000000014000 0000000F 0000                     2                                                                                                                      
21822019G17572108Y1158762J         GAIANIGO STEFANIA                       35A075000000000007000 0000000F 0000                     2                                                                                                                      
21822019G17572108Y1206342Y         OSVALDOVA MARIE                         28A075000000000005000 0000000F 0000                     2                                                                                                                      
21822019G1757210877451295Z         SANTOS PEREZ MARIA IRINA                08A075000000000012000 0000000F 0000                     2                                                                                                                      
21822019G17572108X7366121A         MELO CRUZ MARIA ANDREA                  48A030000000000030000 0000000F 0000                     2                                                                                                                      
21822019G1757210843635308F         LLORENS CAPDEVILA AUREA                 08A030000000000020000 0000000F 0000                     2                                                                                                                      
21822019G1757210872522786Z         IBANEZ MARTINEZ ADRIAN                  28A075000000000012000 0000000F 0000                     2                                                                                                                      
21822019G17572108                  BELOKI JON ANDER                        99A030000000000020000 0000000F 0000                     2                                                                                                                      
21822019G17572108                  DJAMPOUR BABAK                          99A030000000000020000 0000000F 0000                     2                                                                                                                      
21822019G1757210825411546L         MAGDALENA MILA                          46A075000000000012500 0000000F 0000                     2                                                                                                                      
21822019G1757210846360924P         VIANA GORKA                             08A075000000000013500 0000000F 0000                     2                                                                                                                      
21822019G1757210844286116F         MEZCUA LOPEZ ANTONIO JOSE               18A030000000000080000 0000000F 0000                     2                                                                                                                      
21822019G17572108                  FREY MICHAELA                           99A030000000000020000 0000000F 0000                     2                                                                                                                      
21822019G17572108                  TEIXIDO ANA                             99A030000000000029000 0000000F 0000                     2                                                                                                                      
21822019G1757210815908525T         MERINO DE LA PENA MARIA                 10A030000000000063000 0000000F 0000                     2                                                                                                                      
21822019G1757210810055629Y         DEL RIO BARREDO MARIA JOSE              28A030000000000017500 0000000F 0000                     2                                                                                                                      
21822019G17572108Y4870544D         VOROBEI OLGA                            29A075000000000005000 0000000F 0000                     2                                                                                                                      
21822019G17572108                  BORGHETTO ENRICO                        99A030000000000040000 0000000F 0000                     2                                                                                                                      
21822019G1757210877287384R         FERRET RAVENTOS MONTSERRAT              08A030000000000053000 0000000F 0000                     2                                                                                                                      
21822019G1757210825715493K         LUZON RODRIGUEZ BENEDICTA               29A030000000000040000 0000000F 0000                     2                                                                                                                      
21822019G17572108                  MATSUDA ERIKO                           99A030000000000020000 0000000F 0000                     2                                                                                                                      
21822019G17572108                  CLOTAIL PAULINE                         99A075000000000005000 0000000F 0000                     2                                                                                                                      
21822019G17572108                  CORIN JAKE                              99A075000000000010000 0000000F 0000                     2                                                                                                                      
21822019G1757210844601132S         LOPEZ FLORES ANABEL                     11A075000000000015000 0000000F 0000                     2                                                                                                                      
21822019G1757210851094420N         VELASCO RUBIO ALVAR                     28A075000000000008000 0000000F 0000                     2                                                                                                                      
21822019G1757210871290262Z         LEAL GARCIA DAVID                       09A075000000000014000 0000000F 0000                     2                                                                                                                      
21822019G1757210809260783V         RODRIGUEZ CARMEN                        18A030000000000020000 0000000F 0000                     2                                                                                                                      
21822019G17572108X6084915N         BRANCA GIUSEPPE                         36A075000000000015000 0000000F 0000                     2                                                                                                                      
21822019G1757210846700352W         GARCIA JORDAN CLARA                     08A030000000000020000 0000000F 0000                     2                                                                                                                      
21822019G1757210852478028D         ZAPATERO JAVIER                         28A030000000000050000 0000000F 0000                     2                                                                                                                      
21822019G17572108                  DESETABLES AMANDINE                     99A075000000000009000 0000000F 0000                     2                                                                                                                      
21822019G17572108                  LOPES GALANTE DOS SANTOS VITOR DOMINGOS 99A075000000000002500 0000000F 0000                     2                                                                                                                      
21822019G1757210841504411Z         BELTRAN GONZALEZ MANEL                  07A030000000000017000 0000000F 0000                     2                                                                                                                      
21822019G1757210836127216N         FIGUEROA PATRICIA                       36A030000000000020000 0000000F 0000                     2                                                                                                                      
21822019G1757210828643839F         MASEDO GALVEZ DANIEL                    08A075000000000005000 0000000F 0000                     2                                                                                                                      
21822019G1757210830796846F         GALADI GARCIA JAVIER ALEJANDRO          41A035000000000018000 0000000F 0000                     1                                                                                                                      
21822019G17572108X6184747R         CERTO VALERIO                           28A075000000000007000 0000000F 0000                     2                                                                                                                      
21822019G1757210851428112C         GALLEGO GARCIA MARTA                    28A075000000000015000 0000000F 0000                     2                                                                                                                      
21822019G17572108                  GOMES ANA RITA                          99A075000000000005000 0000000F 0000                     2                                                                                                                      
21822019G1757210851687267B         LOPEZ CULEBRAS ANTONIO                  28A075000000000005000 0000000F 0000                     2                                                                                                                      
21822019G17572108Y0734108P         BERGMAN EDWIN CHRISTIAN                 28A075000000000010000 0000000F 0000                     2                                                                                                                      
21822019G1757210810080937Z         PEREZ RAMON LUIS                        34A075000000000010000 0000000F 0000                     1                                                                                                                      
21822019G1757210828518213F         PINTO PABON ISABEL                      28A075000000000015000 0000000F 0000                     2                                                                                                                      
21822019G1757210833364747G         ONATE CARABIAS FRANCISCO JAVIER         29A030000000000030000 0000000F 0000                     2                                                                                                                      
21822019G1757210850866102S         HOLGUERA ORTIZ LETICIA                  28A075000000000015000 0000000F 0000                     2                                                                                                                      
21822019G1757210805362327S         MANUEL LEAL FELIPE                      28A030000000000070000 0000000F 0000                     2                                                                                                                      
21822019G17572108                  BAPTISTA MANUELA                        99A075000000000005000 0000000F 0000                     2                                                                                                                      
21822019G1757210800417644X         ROBLEDO RODRIGUEZ MANUEL                28A030000000000040000 0000000F 0000                     2                                                                                                                      
21822019G1757210809340597K         RUBIO CAMPOS BEATRIZ                    47A075000000000005000 0000000F 0000                     2                                                                                                                      
21822019G1757210878093974G         LLORENS GUIM MARC                       25A075000000000012000 0000000F 0000                     2                                                                                                                      
21822019G1757210851384561P         GONZALEZ VELAZQUEZ JAVIER               28A030000000000060000 0000000F 0000                     2                                                                                                                      
21822019G1757210851328340E         PAJARES RECLUSA JOSE LUIS               28A075000000000012500 0000000F 0000                     2                                                                                                                      
21822019G1757210844593335S         RODRIGUEZ FUNES JOSE ANTONIO            41A030000000000058000 0000000F 0000                     2                                                                                                                      
21822019G17572108                  SANDOVAL NORA EDITH                     99A075000000000010500 0000000F 0000                     2                                                                                                                      
21822019G1757210851586595X         PEREX VILLARIAS ALFONSO                 28A030000000000017000 0000000F 0000                     2                                                                                                                      
21822019G17572108Y3739586F         MOUGA ANA                               05A075000000000013000 0000000F 0000                     2                                                                                                                      
21822019G1757210877918733T         RUIZ DIAZ ESTHER                        17A030000000000020000 0000000F 0000                     2                                                                                                                      
21822019G1757210841578293C         LAW LYDIA                               17A075000000000005000 0000000F 0000                     2                                                                                                                      
21822019G1757210843152360J         FERRERAS CEBRIAN MARIA GUADALUPE        07A030000000000033000 0000000F 0000                     2                                                                                                                      
21822019G17572108                  GIBSON NANCY                            99A030000000000033000 0000000F 0000                     2                                                                                                                      
21822019G1757210818159968L         ARBUES GRACIA LEONOR                    22A030000000000027000 0000000F 0000                     2                                                                                                                      
21822019G17572108                  PRESCOTT SARAH ANN OXMAN                99A075000000000015000 0000000F 0000                     2                                                                                                                      
21822019G17572108                  SVENSSON JIMMY                          99A030000000000020000 0000000F 0000                     2                                                                                                                      
21822019G1757210846470823J         GARCIA SANCHEZ MONTSERRAT               08A075000000000013000 0000000F 0000                     2                                                                                                                      
21822019G1757210843140804A         PEDRERO OLIVER ISABEL                   07A075000000000003000 0000000F 0000                     2                                                                                                                      
21822019G1757210853123082M         FERRER GIMENO JOSEP ORIOL               08A075000000000005000 0000000F 0000                     2                                                                                                                      
21822019G1757210847594948J         ROPERO KATTY                            25A030000000000023000 0000000F 0000                     2                                                                                                                      
21822019G1757210837268467A         PARRA VICTORIA                          43A035000000000070000 0000000F 0000                     1                                                                                                                      
21822019G1757210843002927B         GARCIA VIDAL TERESA                     07A075000000000012000 0000000F 0000                     2                                                                                                                      
21822019G1757210871471625E         VALDEON LIEBANA CLAUDIA                 46A075000000000011000 0000000F 0000                     2                                                                                                                      
21822019G1757210843553348L         MONGE SEVILLA TAMARA                    07A030000000000023000 0000000F 0000                     2                                                                                                                      
21822019G1757210837723185B         GARCIA ISABEL                           08A030000000000020000 0000000F 0000                     2                                                                                                                      
21822019G1757210847274850Y         PLANAS RICARD                           08A075000000000005000 0000000F 0000                     2                                                                                                                      
21822019G1757210853195203K         GARCIA MARTINEZ GUSTAVO                 36A030000000000020000 0000000F 0000                     2                                                                                                                      
21822019G1757210839395367R         MOYA MARTIN ALBA                        08A075000000000005000 0000000F 0000                     2                                                                                                                      
21822019G17572108X5989665M         OSTRIA SOPHIE                           08A075000000000015000 0000000F 0000                     2                                                                                                                      
21822019G1757210838129076K         CARMONA FABA CARLOS                     08A030000000000028000 0000000F 0000                     2                                                                                                                      
21822019G17572108X8881386M         DE MANI GRETA                           08A075000000000005000 0000000F 0000                     2                                                                                                                      
21822019G17572108                  FRANGI FEDERICO                         99A075000000000005000 0000000F 0000                     2                                                                                                                      
21822019G17572108X9692505Y         PETRENKO OLGA                           08A075000000000010000 0000000F 0000                     2                                                                                                                      
21822019G1757210839390157N         CARBO MARTIN MARIA                      08A075000000000007000 0000000F 0000                     2                                                                                                                      
21822019G1757210851140365A         RECATERO REBECA                         08A075000000000012000 0000000F 0000                     2                                                                                                                      
21822019G1757210844329344H         AGUILO BUSTOS MIGUEL ANGEL              07A075000000000008000 0000000F 0000                     2                                                                                                                      
21822019G17572108                  GOLOBORODKO VOLODYMYR                   99A030000000000030000 0000000F 0000                     2                                                                                                                      
21822019G17572108Y0565322L         MALATESTA ROBERTA                       08A075000000000010000 0000000F 0000                     2                                                                                                                      
21822019G17572108                  BRETT OLIVIA                            99A075000000000005000 0000000F 0000                     2                                                                                                                      
21822019G1757210837387584A         PONS JORDI                              08A030000000000090000 0000000F 0000                     2                                                                                                                      
21822019G1757210836963982S         IBANEZ MORO CELESTINO                   08A030000000000040000 0000000F 0000                     2                                                                                                                      
21822019G1757210846756758N         PEREZ DIDAC                             08A075000000000012000 0000000F 0000                     2                                                                                                                      
21822019G1757210828623413M         CANO ANA                                12A075000000000010000 0000000F 0000                     2                                                                                                                      
21822019G1757210819426889P         SIMON FRANCO MARIA SALUD                08A075000000000010000 0000000F 0000                     2                                                                                                                      
21822019G17572108                  SCHLIEMANN BOGUMIL TRISTAN              99A075000000000010000 0000000F 0000                     2                                                                                                                      
21822019G17572108                  VERGARA MONTESO EMILIO                  99A030000000000030000 0000000F 0000                     2                                                                                                                      
21822019G1757210818951621N         FUENTES BARTOLL ROSA ELENA              12A030000000000020000 0000000F 0000                     2                                                                                                                      
21822019G1757210878893148C         CHAPADO INMA                            48A075000000000015000 0000000F 0000                     2                                                                                                                      
21822019G17572108                  COSTA MARIA RUTE                        99A075000000000011000 0000000F 0000                     2                                                                                                                      
21822019G17572108                  SHEN ALEX                               99A030000000000030000 0000000F 0000                     2                                                                                                                      
21822019G1757210871151904R         GUTIERREZ GARCIA NOELIA                 47A030000000000035000 0000000F 0000                     2                                                                                                                      
21822019G1757210847026766T         CABRA MAR                               28A030000000000060000 0000000F 0000                     2                                                                                                                      
21822019G17572108                  BERAUD MELANIE                          99A075000000000012000 0000000F 0000                     2                                                                                                                      
21822019G17572108                  POHLMANN KAJA                           99A075000000000012000 0000000F 0000                     2                                                                                                                      
21822019G1757210833862093K         GARCIA LOPEZ JULIA                      28A030000000000024000 0000000F 0000                     2                                                                                                                      
21822019G17572108                  CARVALHO JOAO                           99A075000000000007000 0000000F 0000                     2                                                                                                                      
21822019G1757210875906859M         CID SAVAL CRISTINA                      05A035000000000028800 0000000F 0000                     1                                                                                                                      
21822019G1757210820835524P         ALMINANA CORTES JORGE                   08A075000000000002000 0000000F 0000                     2                                                                                                                      
21822019G1757210835104298L         DALMAU SOLER SANTIAGO                   08A075000000000011000 0000000F 0000                     2                                                                                                                      
21822019G17572108                  GONZALEZ CAMPILLO SARA                  99A030000000000030000 0000000F 0000                     2                                                                                                                      
21822019G1757210822460592B         SANCHEZ BARBA MARIA JOSE                30A075000000000007000 0000000F 0000                     2                                                                                                                      
21822019G1757210804264875P         AYOUB GHINWA                            28A030000000000052500 0000000F 0000                     2                                                                                                                      
21822019G17572108X8819285G         RADZIKOWSKA MONIKA                      08A030000000000029000 0000000F 0000                     2                                                                                                                      
21822019G17572108                  IRHASIU RADU                            99A030000000000035000 0000000F 0000                     2                                                                                                                      
21822019G1757210802537289K         CORDERO MARQUEZ BEATRIZ                 28A030000000000040000 0000000F 0000                     2                                                                                                                      
21822019G17572108                  ZUSCHLAG DAVID                          99A030000000000020000 0000000F 0000                     2                                                                                                                      
21822019G1757210852891586G         DE LA CALLE HERNANDEZ CARLOS            10A075000000000010000 0000000F 0000                     2                                                                                                                      
21822019G17572108                  BERTON RICCARDO DANIELE                 99A030000000000040000 0000000F 0000                     2                                                                                                                      
21822019G17572108                  ROSU ADRIAN MIHAI                       99A030000000000033300 0000000F 0000                     2                                                                                                                      
21822019G1757210872701517N         ANDRES OSINAGA JULEN                    31A030000000000020000 0000000F 0000                     2                                                                                                                      
21822019G1757210818954618L         VICIANO ROCA JOSE MIGUEL                12A030000000000020000 0000000F 0000                     2                                                                                                                      
21822019G17572108                  MARTIN PAUL                             99A030000000000016000 0000000F 0000                     2                                                                                                                      
21822019G1757210853165427F         ALLER ALBA                              15A075000000000005000 0000000F 0000                     2                                                                                                                      
21822019G1757210812209522H         ALVAREZ REPISO ROSA                     47A075000000000010000 0000000F 0000                     2                                                                                                                      
21822019G17572108Y6291104C         ROSHANGAR FARZAD                        08A075000000000010000 0000000F 0000                     2                                                                                                                      
21822019G17572108                  PATIENCE MADELEINE                      99A075000000000015000 0000000F 0000                     2                                                                                                                      
21822019G17572108Y0649080B         SEMENTSEV ALEXANDER                     08A075000000000010000 0000000F 0000                     2                                                                                                                      
21822019G17572108                  MESQUITA LUIS                           99A075000000000010000 0000000F 0000                     2                                                                                                                      
21822019G17572108                  KLATT SASCHA                            99A030000000000020000 0000000F 0000                     2                                                                                                                      
21822019G17572108                  PAVLENKO VOLODYMYR                      99A075000000000002000 0000000F 0000                     2                                                                                                                      
21822019G17572108X9962597D         VILLALBA DIAZ ADELAIDA                  29A030000000000016000 0000000F 0000                     2                                                                                                                      
21822019G17572108                  BARTHEL JENS                            99A030000000000025000 0000000F 0000                     2                                                                                                                      
21822019G1757210853007212D         ACOSTA GONZALEZ MONICA                  28A030000000000020500 0000000F 0000                     2                                                                                                                      
21822019G1757210809390881G         VAZQUEZ RAQUEL                          33A030000000000020000 0000000F 0000                     2                                                                                                                      
21822019G1757210811051102Q         GONZALEZ MARTINEZ MARIA ANGELINA        33A030000000000020000 0000000F 0000                     2                                                                                                                      
21822019G17572108                  NAPOLY BRICE                            99A030000000000025000 0000000F 0000                     2                                                                                                                      
21822019G1757210810186571D         MARTINEZ RUBIO TERESA                   24A030000000000020000 0000000F 0000                     2                                                                                                                      
21822019G1757210851576832E         ROMERO GARCIA ANGEL                     28A030000000000030000 0000000F 0000                     2                                                                                                                      
21822019G1757210816794415E         CORREDOR MARIANO                        42A030000000000020000 0000000F 0000                     2                                                                                                                      
21822019G1757210816008253T         REDRADO MARSELLA ROSA                   31A030000000000020000 0000000F 0000                     2                                                                                                                      
21822019G17572108                  MACWAN CAROLIN                          99A075000000000010000 0000000F 0000                     2                                                                                                                      
21822019G1757210843742545H         ARDERIU ORTIZ GERARD                    25A030000000000033300 0000000F 0000                     2                                                                                                                      
21822019G1757210827447628A         FRANCO LOPEZ MARIA PILAR                30A075000000000005000 0000000F 0000                     2                                                                                                                      
21822019G17572108X3183249A         DE VOS KARLIEN                          29A030000000000040000 0000000F 0000                     2                                                                                                                      
21822019G17572108                  SPIRINA VERONIKA                        99A030000000000030000 0000000F 0000                     2                                                                                                                      
21822019G1757210825141539D         CALDERON JIMENEZ MARIA VICTORIA         09A030000000000025000 0000000F 0000                     2                                                                                                                      
21822019G1757210844152231M         FACIAN ENRIQUE                          20A030000000000020000 0000000F 0000                     2                                                                                                                      
21822019G17572108                  MAIGNIEN RAPHAEL                        99A075000000000010000 0000000F 0000                     2                                                                                                                      
21822019G1757210848818378G         JIMENEZ ARAGON MARIA NAZARET            28A075000000000006000 0000000F 0000                     2                                                                                                                      
21822019G17572108                  COELHO DA SILVA ANTONIO LOURENCO        99A030000000000040000 0000000F 0000                     2                                                                                                                      
21822019G17572108X1289741Q         DRAGNIC DARKO                           41A075000000000008000 0000000F 0000                     2                                                                                                                      
21822019G1757210820263769X         SANCHEZ JORGE                           17A030000000000030000 0000000F 0000                     2                                                                                                                      
21822019G1757210846850640P         RAMOS JOSE                              28A030000000000020000 0000000F 0000                     2                                                                                                                      
21822019G1757210820026628E         VIVO CREMADES VICENTE                   46A030000000000030000 0000000F 0000                     2                                                                                                                      
21822019G17572108                  ACOSTA JIMENA                           99A030000000000016000 0000000F 0000                     2                                                                                                                      
21822019G17572108Y2267666H         PRECIADO VARGAS SANDRA PATRICIA         38A075000000000007000 0000000F 0000                     2                                                                                                                      
21822019G17572108                  BILYAYEV KOSTYANTYN                     99A075000000000010000 0000000F 0000                     2                                                                                                                      
21822019G1757210874734742Z         GONZALEZ FUENTES ABIGAIL                05A030000000000027000 0000000F 0000                     2                                                                                                                      
21822019G1757210805204376M         URBINA PUERTAS PABLO                    28A035000000000040000 0000000F 0000                     1                                                                                                                      
21822019G1757210800830035B         DE CASTRO GUTIERREZ CRISTINA            33A075000000000007000 0000000F 0000                     2                                                                                                                      
21822019G1757210801089958B         BRANA EMILIA                            05A030000000000395915 0000000F 0000                     2                                                                                                                      
21822019G17572108                  BILYAYEV CORINNE                        99A075000000000010000 0000000F 0000                     2                                                                                                                      
21822019G17572108                  MARCOS ZOILO ROSA                       99A075000000000004000 0000000F 0000                     2                                                                                                                      
21822019G1757210836515287G         SIN BESTREGUI NATALIA                   17A075000000000002000 0000000F 0000                     2                                                                                                                      
21822019G1757210845644525J         CARRERAS MARGALEF RAMON                 08A075000000000003000 0000000F 0000                     2                                                                                                                      
21822019G1757210846562321V         BARBENA MARTI ANNA                      08A075000000000015000 0000000F 0000                     2                                                                                                                      
21822019G17572108                  CLEWES GARCIA JOSHUA                    99A075000000000001000 0000000F 0000                     2                                                                                                                      
21822019G1757210847692418D         PAMPALONA NEUS                          25A030000000000039500 0000000F 0000                     2                                                                                                                      
21822019G17572108                  PAKULA JULIA                            99A075000000000005000 0000000F 0000                     2                                                                                                                      
21822019G1757210850691885T         SECUNDINO PUEBLA JOSE ANTONIO           28A030000000000030000 0000000F 0000                     2                                                                                                                      
21822019G17572108X6097795N         REPETTO LISA                            08A075000000000005000 0000000F 0000                     2                                                                                                                      
21822019G17572108X4232149B         DRIGA OTILIA                            08A075000000000005000 0000000F 0000                     2                                                                                                                      
21822019G17572108Y0845521D         ROSANO FABRIZIO                         15A075000000000008000 0000000F 0000                     2                                                                                                                      
21822019G17572108                  TORRES MELGAR NICASIO                   99A030000000000019500 0000000F 0000                     2                                                                                                                      
21822019G1757210877107218V         CIVIT HERNANDEZ ROSA MARIA              08A075000000000003000 0000000F 0000                     2                                                                                                                      
21822019G1757210837388757A         ROSILLO KHONSU                          08A075000000000009000 0000000F 0000                     2                                                                                                                      
21822019G1757210802252700B         GARRIGOS LOPEZ DE LA OSA ANTONIO        28A075000000000010000 0000000F 0000                     2                                                                                                                      
21822019G1757210871268464C         NUNEZ LOPEZ JORGE                       09A075000000000009000 0000000F 0000                     2                                                                                                                      
21822019G1757210876689146Q         REIBELO MARTIN JUAN DANIEL              33A075000000000005400 0000000F 0000                     2                                                                                                                      
21822019G17572108Y5808055V         MERCURI REYES EMILIO ENRIQUE            38A075000000000015000 0000000F 0000                     2                                                                                                                      
21822019G1757210846616016F         MARTINEZ BERMUDEZ MARIA JESUS           08A075000000000014000 0000000F 0000                     2                                                                                                                      
21822019G1757210846242256C         ROURA STAMPA BELEN                      08A075000000000001000 0000000F 0000                     2                                                                                                                      
21822019G1757210853492232M         GARCIA MARIA                            28A075000000000007900 0000000F 0000                     2                                                                                                                      
21822019G17572108                  LORCERY MARIE                           99A075000000000010000 0000000F 0000                     2                                                                                                                      
21822019G17572108                  JOHNSEN ARING SA                        99A075000000000010000 0000000F 0000                     2                                                                                                                      
21822019G17572108                  DEL BARRIO CASADO MONTSERRAT            99A030000000000019000 0000000F 0000                     2                                                                                                                      
21822019G1757210847717967M         VILADAS ELISA                           28A030000000000040000 0000000F 0000                     2                                                                                                                      
21822019G17572108Y5261134J         HANCOCK MELANIE                         08A030000000000020000 0000000F 0000                     2                                                                                                                      
21822019G17572108                  ORDONEZ PASTOR JULIO                    99A075000000000003000 0000000F 0000                     2                                                                                                                      
21822019G17572108                  NUNES FIGUEIREDO VIEIRA BORGES CRISTINA 99A075000000000015000 0000000F 0000                     2                                                                                                                      
21822019G1757210843098139A         GARCIA ROBERTO                          07A030000000000030000 0000000F 0000                     2                                                                                                                      
21822019G1757210840517956Y         PLA SAAVEDRA MARIO                      17A030000000000040000 0000000F 0000                     2                                                                                                                      
21822019G17572108                  BRACKE MATTHEW                          99A075000000000008000 0000000F 0000                     2                                                                                                                      
21822019G17572108                  MATIAS RUI                              99A030000000000024000 0000000F 0000                     2                                                                                                                      
21822019G17572108                  BRIOSCHI ELENA                          99A075000000000015000 0000000F 0000                     2                                                                                                                      
21822019G1757210846629841D         SANCHEZ CUBERES MONICA                  08A030000000000017000 0000000F 0000                     2                                                                                                                      
21822019G1757210833885400Y         CARDENAS VERDUGO ISABEL TERESA          07A075000000000012000 0000000F 0000                     2                                                                                                                      
21822019G1757210853494945G         CIFUENTES GARCIA YAIZA                  28A030000000000016000 0000000F 0000                     2                                                                                                                      
21822019G17572108Y4689883J         CABRERA ALVAREZ SOLEDAD ELIZABETH       50A075000000000012000 0000000F 0000                     2                                                                                                                      
21822019G1757210847794499Q         VILAR BOFILL HELENA                     08A075000000000008000 0000000F 0000                     2                                                                                                                      
21822019G1757210850938971C         PLAZA CORREAL MARIA DEL CARMEN          03A075000000000015000 0000000F 0000                     2                                                                                                                      
21822019G17572108                  BIRKEFELD MARION                        99A030000000000030000 0000000F 0000                     2                                                                                                                      
21822019G1757210853597390F         MUNOZ AZAHARA                           23A075000000000010000 0000000F 0000                     2                                                                                                                      
21822019G17572108                  LUNA NUNEZ SONIA                        99A030000000000023000 0000000F 0000                     2                                                                                                                      
21822019G17572108X9705280Q         CREMONA RENATO                          35A030000000000040000 0000000F 0000                     2                                                                                                                      
21822019G1757210877738369W         CAMP SOLDEVILA FINA                     08A030000000000030000 0000000F 0000                     2                                                                                                                      
21822019G17572108                  DE PAZ ANGEL                            99A030000000000019000 0000000F 0000                     2                                                                                                                      
21822019G1757210824309559P         DERQUI FENOLLERA MARIA                  46A030000000000035000 0000000F 0000                     2                                                                                                                      
21822019G17572108                  KRUSSMANN FELIX                         99A030000000000031101 0000000F 0000                     2                                                                                                                      
21822019G17572108                  MOREIRA DE MATOS TERESA CRISTINA        99A030000000000040000 0000000F 0000                     2                                                                                                                      
21822019G17572108                  NIE JING                                99A030000000000040000 0000000F 0000                     2                                                                                                                      
21822019G1757210841006931R         ORTEMBERG ADRIANA                       08A030000000000020000 0000000F 0000                     2                                                                                                                      
21822019G1757210852403591T         GONZALEZ FERRANDO JOSE                  08A075000000000015000 0000000F 0000                     2                                                                                                                      
21822019G17572108                  WASYLUK NINA                            99A075000000000010000 0000000F 0000                     2                                                                                                                      
21822019G17572108                  KHOMENKO ALEXANDER                      99A030000000000050000 0000000F 0000                     2                                                                                                                      
21822019G1757210846615022W         CORREDERA CEJAS MARIA YOLANDA           08A075000000000010000 0000000F 0000                     2                                                                                                                      
21822019G1757210852799516A         MENERO GONZALEZ RAFAEL                  46A035000000000047000 0000000F 0000                     1                                                                                                                      
21822019G1757210806540431J         JIMENEZ MARIBEL                         07A075000000000015000 0000000F 0000                     2                                                                                                                      
21822019G1757210840523888G         CALDERON FELIU FRANCISCO                17A075000000000015000 0000000F 0000                     2                                                                                                                      
21822019G1757210837290979K         COLLADO MARIBEL                         17A075000000000012000 0000000F 0000                     2                                                                                                                      
21822019G1757210805218661F         PEREZ TORREGO JOSE CARLOS               28A030000000000030000 0000000F 0000                     2                                                                                                                      
21822019G1757210814258136E         DIEZ RAUL                               40A030000000000020000 0000000F 0000                     2                                                                                                                      
21822019G17572108                  GAGO ORDAX YOLANDA                      99A030000000000020000 0000000F 0000                     2                                                                                                                      
21822019G17572108                  HEREZA LEBRON JUAN ANTONIO              99A030000000000060000 0000000F 0000                     2                                                                                                                      
21822019G17572108                  DONSKOI ALEXANDER                       99A075000000000012000 0000000F 0000                     2                                                                                                                      
21822019G1757210805207543K         RODRIGUEZ DE AUSTRIA ALFONSO            41A075000000000005000 0000000F 0000                     2                                                                                                                      
21822019G1757210851947483M         MUNOZ MEDINA VERONICA                   28A075000000000012000 0000000F 0000                     2                                                                                                                      
21822019G1757210836111044D         MARTINEZ COMESANA YOLANDA               36A030000000000060000 0000000F 0000                     2                                                                                                                      
21822019G1757210853026904J         GAMARRA RUIZ SAMUEL                     08A030000000000020000 0000000F 0000                     2                                                                                                                      
21822019G17572108                  BENAVIDES STEVEN                        99A075000000000014000 0000000F 0000                     2                                                                                                                      
21822019G1757210852861377V         MOURELLE CICUENDEZ DIGNA                28A030000000000020000 0000000F 0000                     2                                                                                                                      
21822019G17572108                  SCHRUNDER SABINE                        99A030000000000025000 0000000F 0000                     2                                                                                                                      
21822019G17572108                  VINA LUA                                99A030000000000038000 0000000F 0000                     2                                                                                                                      
21822019G1757210837657616S         BEASCOA GUIX ENRIQUETA                  08A030000000000027000 0000000F 0000                     2                                                                                                                      
21822019G1757210843404762J         ROMERO PINIELLA MANUELA                 17A035000000000044000 0000000F 0000                     1                                                                                                                      
21822019G17572108                  FARRUGIA CHRISTOPHER                    99A030000000000040000 0000000F 0000                     2                                                                                                                      
21822019G1757210843167283D         FERRERAS CEBRIAN MARIA BELEN            07A075000000000010000 0000000F 0000                     2                                                                                                                      
21822019G1757210830420710J         MUNOZ ODRIOZOLA MARTA                   14A030000000000026000 0000000F 0000                     2                                                                                                                      
21822019G1757210870937135Y         MARTIN SANCHEZ VIRGINIA                 10A075000000000004000 0000000F 0000                     2                                                                                                                      
21822019G1757210847817974P         MONTESINOS PACITTO JONATAN              08A075000000000010000 0000000F 0000                     2                                                                                                                      
21822019G17572108                  ALLEREAU MATTHIEU                       99A030000000000018000 0000000F 0000                     2                                                                                                                      
21822019G17572108                  DUBOURDIEU DAMIEN                       99A030000000000070000 0000000F 0000                     2                                                                                                                      
21822019G17572108                  TELLIER MAXIME                          99A030000000000040000 0000000F 0000                     2                                                                                                                      
21822019G17572108                  ANDRAS LARISA                           99A075000000000010000 0000000F 0000                     2                                                                                                                      
21822019G17572108                  CHETCUTI RYAN                           99A030000000000025000 0000000F 0000                     2                                                                                                                      
21822019G17572108                  CERVENKA JAKUB                          99A030000000000050000 0000000F 0000                     2                                                                                                                      
21822019G1757210871184626V         SINOVAS MARTINEZ ANIBAL                 47A075000000000010000 0000000F 0000                     2                                                                                                                      
21822019G17572108                  STROESCU ALEXANDRA                      99A075000000000010000 0000000F 0000                     2                                                                                                                      
21822019G1757210875142377C         RODRIGUEZ PUENTE CLAUDIO JORGE          27A075000000000005000 0000000F 0000                     2                                                                                                                      
21822019G17572108                  VANDENREIJT KRIS                        99A030000000000035000 0000000F 0000                     2                                                                                                                      
21822019G17572108                  LARICHI NEJMA                           99A075000000000010000 0000000F 0000                     2                                                                                                                      
21822019G17572108                  COSMIDIS CHLOE                          99A030000000000018000 0000000F 0000                     2                                                                                                                      
21822019G17572108X8584046D         CASTRO RODRIGUEZ RICARDO ALEXANDER      28A075000000000002000 0000000F 0000                     2                                                                                                                      
21822019G1757210815935400B         VICENTE PARDO JUAN CARLOS               01A030000000000020000 0000000F 0000                     2                                                                                                                      
21822019G17572108                  LAGOUTTE CHRISTIAN                      99A030000000000035000 0000000F 0000                     2                                                                                                                      
21822019G1757210852083332Q         DIAZ YUGO JUAN PEDRO                    28A030000000000020000 0000000F 0000                     2                                                                                                                      
21822019G1757210870251153E         EGIDO DE FRUTOS ESTEFANIA               40A030000000000020000 0000000F 0000                     2                                                                                                                      
21822019G1757210811842174A         SAMPER ORPEZ MARIA JOSE                 28A075000000000012000 0000000F 0000                     2                                                                                                                      
21822019G17572108                  MAISONNEUVE GAEL                        99A030000000000040000 0000000F 0000                     2                                                                                                                      
21822019G1757210846532289T         CORET MORENO ANDREU                     08A030000000000040000 0000000F 0000                     2                                                                                                                      
21822019G1757210843469767C         ARSLANBEKOVA ALFIA                      07A075000000000010000 0000000F 0000                     2                                                                                                                      
21822019G17572108                  MUNTEANU VALERIAN                       99A075000000000010000 0000000F 0000                     2                                                                                                                      
21822019G17572108                  PETTER HENK                             99A075000000000010000 0000000F 0000                     2                                                                                                                      
21822019G1757210872752933T         MARTINEZ DE ALBENIZ JAIONE              01A030000000000027000 0000000F 0000                     2                                                                                                                      
21822019G17572108                  MERAN LAURA EDIT                        99A075000000000010000 0000000F 0000                     2                                                                                                                      
21822019G1757210813939271Y         DE LA BODEGA GONZALEZ-AMALIACH MARIA    39A075000000000008000 0000000F 0000                     2                                                                                                                      
21822019G1757210852179305X         TORNE FERNANDEZ ANNA                    08A030000000000025000 0000000F 0000                     2                                                                                                                      
21822019G17572108Y0031096Z         TOMCZAK ALICJA                          04A030000000000025000 0000000F 0000                     2                                                                                                                      
21822019G1757210875876899Z         CAMPOS RUIZ SILVERIO                    35A030000000000031700 0000000F 0000                     2                                                                                                                      
21822019G1757210873086397X         FABANA PORTOLES LUIS                    18A075000000000004000 0000000F 0000                     2                                                                                                                      
21822019G1757210850835122Q         RECUERO VICTORIA                        28A075000000000008500 0000000F 0000                     2                                                                                                                      
21822019G1757210830673659P         ETXEBARRIA IZCO AITOR                   48A030000000000023000 0000000F 0000                     2                                                                                                                      
21822019G1757210822519715R         GOMEZ PANTOJA NOGUERA JOSE IGNACIO      46A030000000000120000 0000000F 0000                     2                                                                                                                      
21822019G1757210890001212G         ROSELL ANNA                             17A030000000000060000 0000000F 0000                     2                                                                                                                      
21822019G17572108                  DOMOTOR JUDIT                           99A075000000000010000 0000000F 0000                     2                                                                                                                      
21822019G17572108Y1082512P         MURESAN TEODORA                         08A030000000000020000 0000000F 0000                     2                                                                                                                      
21822019G17572108                  HARS MATHIAS                            99A030000000000020000 0000000F 0000                     2                                                                                                                      
21822019G1757210845193099P         MORAN MERLETTI MARIA MARTA              07A035000000000025000 0000000F 0000                     1                                                                                                                      
21822019G17572108                  ROQUE GAMEIRO NETO SANTOS MARIA TERESA  99A075000000000006000 0000000F 0000                     2                                                                                                                      
21822019G17572108                  HORVAT ALEN                             99A075000000000015000 0000000F 0000                     2                                                                                                                      
21822019G17572108                  PAPADAKIS OLIVIER                       99A075000000000012000 0000000F 0000                     2                                                                                                                      
21822019G1757210805338835Y         LEON FERNANDO                           28A075000000000011000 0000000F 0000                     2                                                                                                                      
21822019G17572108                  HARTOG ROBBY                            99A030000000000038000 0000000F 0000                     2                                                                                                                      
21822019G17572108                  VIEIRA BORGES MARIA                     99A075000000000015000 0000000F 0000                     2                                                                                                                      
21822019G1757210846996514Q         CASTILLEJOS LAURA                       08A075000000000010000 0000000F 0000                     2                                                                                                                      
21822019G1757210825158652X         AZON MARTINEZ SERCHIO                   50A030000000000038000 0000000F 0000                     2                                                                                                                      
21822019G17572108                  ANTUNES CARVALHO DA SILVA MIGUEL MANUEL 99A075000000000014000 0000000F 0000                     2                                                                                                                      
21822019G1757210877785759N         BAYONA CARRION LOURDES                  43A030000000000020000 0000000F 0000                     2                                                                                                                      
21822019G1757210830611065C         ALONSO ROBERTO                          48A075000000000010000 0000000F 0000                     2                                                                                                                      
21822019G1757210840999575M         FOLCH POL                               08A075000000000010000 0000000F 0000                     2                                                                                                                      
21822019G17572108                  DELL OLIVO PETER                        99A075000000000015000 0000000F 0000                     2                                                                                                                      
21822019G17572108                  MOERMAN RENATE                          99A030000000000030000 0000000F 0000                     2                                                                                                                      
21822019G1757210814264860F         APARICIO CERVANTES SONIA                48A030000000000030000 0000000F 0000                     2                                                                                                                      
21822019G17572108                  BALDREICH KAROLINA                      99A075000000000015000 0000000F 0000                     2                                                                                                                      
21822019G1757210831697511S         VAZQUEZ ALONSO HUGO BRAULIO             50A035000000000042000 0000000F 0000                     1                                                                                                                      
21822019G17572108Y5156609T         O'REILLY DANIEL                         43A075000000000003000 0000000F 0000                     2                                                                                                                      
21822019G1757210880094129X         COSTILLO MATAMOROS LUIS PABLO           06A030000000000020000 0000000F 0000                     2                                                                                                                      
21822019G1757210848440713E         AGUADO MIGUEL                           46A030000000000020000 0000000F 0000                     2                                                                                                                      
21822019G17572108                  CIORNICIUC IOANA VERONICA               99A030000000000025000 0000000F 0000                     2                                                                                                                      
21822019G1757210850221053R         DEL PILAR ANIBAL                        28A030000000000020000 0000000F 0000                     2                                                                                                                      
21822019G1757210839698574E         JORNET ORTOLL MERITXELL                 43A030000000000025000 0000000F 0000                     2                                                                                                                      
21822019G17572108                  BERTIN THOMAS                           99A030000000000040000 0000000F 0000                     2                                                                                                                      
21822019G17572108                  MARIE MUNOS                             99A030000000000020000 0000000F 0000                     2                                                                                                                      
21822019G17572108                  NARJA SIRET                             99A075000000000010000 0000000F 0000                     2                                                                                                                      
21822019G17572108                  PEARSON ABEL                            99A075000000000010000 0000000F 0000                     2                                                                                                                      
21822019G17572108                  ROJANAWISUT BASTIEN                     99A030000000000070000 0000000F 0000                     2                                                                                                                      
21822019G17572108                  NADER WELLIGTON                         99A030000000000025000 0000000F 0000                     2                                                                                                                      
21822019G1757210822545009H         MARTINEZ ALONSO CARMEN                  16A030000000000060000 0000000F 0000                     2                                                                                                                      
21822019G17572108                  GEIER LEA                               99A075000000000014500 0000000F 0000                     2                                                                                                                      
21822019G17572108Y4413752C         SEARLE GREGORY                          11A030000000000020000 0000000F 0000                     2                                                                                                                      
21822019G17572108                  GRAVE FLORIAN                           99A075000000000010000 0000000F 0000                     2                                                                                                                      
21822019G1757210854354384W         LOMBANA PULIDO DORIS AMPARO             28A075000000000011500 0000000F 0000                     2                                                                                                                      
21822019G17572108                  ALJIC ELVINA                            99A075000000000015000 0000000F 0000                     2                                                                                                                      
21822019G1757210831260482D         VARGAS PARAMIO JOSE LUIS                07A075000000000015000 0000000F 0000                     2                                                                                                                      
21822019G17572108Y0099897E         VLASOVA EVA NATALIA                     25A075000000000010000 0000000F 0000                     2                                                                                                                      
21822019G1757210809341282Q         FONTANILLAS BURON ISABEL                47A075000000000010000 0000000F 0000                     2                                                                                                                      
21822019G17572108                  BIANCHINI NICCOLO                       99A030000000000047000 0000000F 0000                     2                                                                                                                      
21822019G17572108X3191774H         MANARA POKS LUCIANO SEGISMUNDO          07A075000000000010000 0000000F 0000                     2                                                                                                                      
21822019G1757210823209752S         SANCHEZ FERNANDEZ TERESA                46A030000000000020000 0000000F 0000                     2                                                                                                                      
21822019G17572108                  GARCIA ISABELLE                         99A030000000000030000 0000000F 0000                     2                                                                                                                      
21822019G17572108                  LARUE BERTRAND                          99A030000000000020000 0000000F 0000                     2                                                                                                                      
21822019G17572108X1422208A         HELIN RIITTA                            29A030000000000020000 0000000F 0000                     2                                                                                                                      
21822019G17572108Y3458666D         KOLESNICHENKO ANDREY                    08A030000000000030000 0000000F 0000                     2                                                                                                                      
21822019G17572108                  SERBAN GABRIEL NICOLAE                  99A075000000000015000 0000000F 0000                     2                                                                                                                      
21822019G17572108                  CHIAVASSA ELISA                         99A075000000000015000 0000000F 0000                     2                                                                                                                      
21822019G17572108                  MARTIN CAROLE                           99A030000000000020000 0000000F 0000                     2                                                                                                                      
21822019G17572108                  GIANNOTTI FEDERICO                      99A030000000000020000 0000000F 0000                     2                                                                                                                      
21822019G1757210840451523C         GOMEZ LUQUE ROBERTO                     08A075000000000015000 0000000F 0000                     2                                                                                                                      
21822019G1757210800418980N         REGUEIRO MARIA                          28A030000000000035000 0000000F 0000                     2                                                                                                                      
21822019G1757210846664599Z         GARRIGOS LIBERTO                        07A030000000000050000 0000000F 0000                     2                                                                                                                      
